{
	"data": {
		"bytecode": {
			"linkReferences": {},
			"object": "608060405234801561001057600080fd5b50600080546001600160a01b031916331781556001819055600281905560038190556004556124da806100446000396000f3fe608060405234801561001057600080fd5b50600436106100ff5760003560e01c806362ea80131161009757806381740e5b1161006657806381740e5b1461022b578063983fce0e1461023e578063b4a039d514610251578063daf4d0a71461026457600080fd5b806362ea8013146101df578063655d864f146101f25780636cd2e00a1461020557806377ed08c91461021857600080fd5b806324873cb7116100d357806324873cb71461017857806334cade131461018b578063402d364e146101ab57806350f022b0146101cc57600080fd5b80625111981461010457806308f5a1121461012d578063118af2fb1461014257806322c19f8b14610155575b600080fd5b6101176101123660046119fc565b610277565b6040516101249190611a4d565b60405180910390f35b61014061013b366004611b1e565b6102cf565b005b610140610150366004611bfd565b610540565b6101686101633660046119fc565b61062c565b6040516101249493929190611da4565b6101406101863660046119fc565b610d22565b61019e6101993660046119fc565b610d76565b6040516101249190611e9d565b6101be6101b93660046119fc565b611099565b604051908152602001610124565b6101406101da366004611f9a565b6110d8565b6101406101ed366004611fc6565b6111d0565b610140610200366004611fe8565b611277565b61014061021336600461202f565b611334565b6101406102263660046120ad565b611423565b6101406102393660046121f5565b6115f7565b61014061024c3660046119fc565b6116d8565b6101be61025f3660046119fc565b6117b0565b610140610272366004611fe8565b6117fd565b60008160008111801561028b575060035481105b6102b05760405162461bcd60e51b81526004016102a79061224c565b60405180910390fd5b6000838152600560208190526040909120015460ff1691505b50919050565b336000908152600c6020526040902054156103525760405162461bcd60e51b815260206004820152603e60248201527f596f75206861766520616c72656164792072656769737465726564206173206160448201527f6e206170706c6963616e7420696e20746865204a6f6220506f7274616c2e000060648201526084016102a7565b60006002600081546103639061228b565b91905081905590506000604051806101600160405280838152602001336001600160a01b031681526020018a81526020018981526020018881526020018660028111156103b2576103b2611a15565b81526020018781526020018560ff1681526020018460ff168152602001600081526020016000815250905080600560008481526020019081526020016000206000820151816000015560208201518160010160006101000a8154816001600160a01b0302191690836001600160a01b03160217905550604082015181600201908161043d9190612327565b50606082015160038201906104529082612327565b50608082015160048201906104679082612327565b5060a082015160058201805460ff1916600183600281111561048b5761048b611a15565b021790555060c082015160068201906104a49082612327565b5060e08201516007820180546101008086015160ff94851661ffff199093169290921793909116029190911790556101208201516008820155610140909101516009909101556040513381527febf1b758105df04a8bb8d90c425719a46421b7beedc5d5098690437304fe69619060200160405180910390a160016003600082825461053091906123e7565b9091555050505050505050505050565b60008581526005602052604090206001015485906001600160a01b0316331461057b5760405162461bcd60e51b81526004016102a7906123fa565b600086815260066020908152604080832081516080810183528981528084018990529182018790526060820186905280546001810182559084529190922082516004909202019081906105ce9082612327565b50602082015160018201906105e39082612327565b5060408281015160028301556060909201516003909101555186907fae06e13a426534cc626a1e12740d9ffcaf9578f1680378be7817da8bbaa9514b90600090a2505050505050565b610634611915565b6106666040518060a0016040528060608152602001606081526020016060815260200160608152602001606081525090565b6000838152600960209081526040808320600d8352818420600a8452828520600b85529483902083516101408101855283546001600160a01b03168152600184015495810195909552600283018054606097889795969495909490928792918401916106d1906122a4565b80601f01602080910402602001604051908101604052809291908181526020018280546106fd906122a4565b801561074a5780601f1061071f5761010080835404028352916020019161074a565b820191906000526020600020905b81548152906001019060200180831161072d57829003601f168201915b50505050508152602001600382018054610763906122a4565b80601f016020809104026020016040519081016040528092919081815260200182805461078f906122a4565b80156107dc5780601f106107b1576101008083540402835291602001916107dc565b820191906000526020600020905b8154815290600101906020018083116107bf57829003601f168201915b505050918352505060048201546020820152600582015460409091019060ff16600281111561080d5761080d611a15565b600281111561081e5761081e611a15565b8152600582015460ff61010090910481166020830152600683015460408084019190915260078401546060840152600890930154161515608090910152805160a08101909152845491955090849082908290610879906122a4565b80601f01602080910402602001604051908101604052809291908181526020018280546108a5906122a4565b80156108f25780601f106108c7576101008083540402835291602001916108f2565b820191906000526020600020905b8154815290600101906020018083116108d557829003601f168201915b5050505050815260200160018201805461090b906122a4565b80601f0160208091040260200160405190810160405280929190818152602001828054610937906122a4565b80156109845780601f1061095957610100808354040283529160200191610984565b820191906000526020600020905b81548152906001019060200180831161096757829003601f168201915b5050505050815260200160028201805461099d906122a4565b80601f01602080910402602001604051908101604052809291908181526020018280546109c9906122a4565b8015610a165780601f106109eb57610100808354040283529160200191610a16565b820191906000526020600020905b8154815290600101906020018083116109f957829003601f168201915b50505050508152602001600382018054610a2f906122a4565b80601f0160208091040260200160405190810160405280929190818152602001828054610a5b906122a4565b8015610aa85780601f10610a7d57610100808354040283529160200191610aa8565b820191906000526020600020905b815481529060010190602001808311610a8b57829003601f168201915b50505050508152602001600482018054610ac1906122a4565b80601f0160208091040260200160405190810160405280929190818152602001828054610aed906122a4565b8015610b3a5780601f10610b0f57610100808354040283529160200191610b3a565b820191906000526020600020905b815481529060010190602001808311610b1d57829003601f168201915b505050505081525050925081805480602002602001604051908101604052809291908181526020016000905b82821015610c2657838290600052602060002001604051806020016040529081600082018054610b95906122a4565b80601f0160208091040260200160405190810160405280929190818152602001828054610bc1906122a4565b8015610c0e5780601f10610be357610100808354040283529160200191610c0e565b820191906000526020600020905b815481529060010190602001808311610bf157829003601f168201915b50505050508152505081526020019060010190610b66565b50505050915080805480602002602001604051908101604052809291908181526020016000905b82821015610d0d57838290600052602060002001604051806020016040529081600082018054610c7c906122a4565b80601f0160208091040260200160405190810160405280929190818152602001828054610ca8906122a4565b8015610cf55780601f10610cca57610100808354040283529160200191610cf5565b820191906000526020600020905b815481529060010190602001808311610cd857829003601f168201915b50505050508152505081526020019060010190610c4d565b50505050905093509350935093509193509193565b60008181526009602052604090205481906001600160a01b03163314610d5a5760405162461bcd60e51b81526004016102a790612431565b506000908152600960205260409020600801805460ff19169055565b610d7e611982565b81600081118015610d90575060035481105b610dac5760405162461bcd60e51b81526004016102a79061224c565b6000838152600560209081526040918290208251610160810184528154815260018201546001600160a01b0316928101929092526002810180549293919291840191610df7906122a4565b80601f0160208091040260200160405190810160405280929190818152602001828054610e23906122a4565b8015610e705780601f10610e4557610100808354040283529160200191610e70565b820191906000526020600020905b815481529060010190602001808311610e5357829003601f168201915b50505050508152602001600382018054610e89906122a4565b80601f0160208091040260200160405190810160405280929190818152602001828054610eb5906122a4565b8015610f025780601f10610ed757610100808354040283529160200191610f02565b820191906000526020600020905b815481529060010190602001808311610ee557829003601f168201915b50505050508152602001600482018054610f1b906122a4565b80601f0160208091040260200160405190810160405280929190818152602001828054610f47906122a4565b8015610f945780601f10610f6957610100808354040283529160200191610f94565b820191906000526020600020905b815481529060010190602001808311610f7757829003601f168201915b5050509183525050600582015460209091019060ff166002811115610fbb57610fbb611a15565b6002811115610fcc57610fcc611a15565b8152602001600682018054610fe0906122a4565b80601f016020809104026020016040519081016040528092919081815260200182805461100c906122a4565b80156110595780601f1061102e57610100808354040283529160200191611059565b820191906000526020600020905b81548152906001019060200180831161103c57829003601f168201915b5050509183525050600782015460ff8082166020840152610100909104166040820152600882015460608201526009909101546080909101529392505050565b600081815260056020908152604080832060080154600690925282205480156110ce576110c68183612468565b949350505050565b5060009392505050565b600082815260096020526040812060010154900361112d5760405162461bcd60e51b8152602060048201526012602482015271129bd888191bd95cc81b9bdd08195e1a5cdd60721b60448201526064016102a7565b60008160ff16118015611144575060058160ff1611155b6111815760405162461bcd60e51b815260206004820152600e60248201526d496e76616c696420726174696e6760901b60448201526064016102a7565b6000828152600960205260408120600601805460ff841692906111a59084906123e7565b909155505060008281526009602052604081206007018054916111c78361228b565b91905055505050565b816000811180156111e2575060035481105b6111fe5760405162461bcd60e51b81526004016102a79061224c565b60008211801561120f575060058211155b61124c5760405162461bcd60e51b815260206004820152600e60248201526d496e76616c696420726174696e6760901b60448201526064016102a7565b6000838152600560205260408120600801805484929061126d9084906123e7565b9091555050505050565b60008281526009602052604090205482906001600160a01b031633146112af5760405162461bcd60e51b81526004016102a790612431565b6000838152600a602090815260408083208151808401909252858252805460018101825590845291909220825191019081906112eb9082612327565b505050336001600160a01b03167f637e27f17a25fb1b5a05bc443c24a185895add717297be545dca2896b20789e583604051611327919061248a565b60405180910390a2505050565b60008481526005602052604090206001015484906001600160a01b0316331461136f5760405162461bcd60e51b81526004016102a7906123fa565b6000858152600760209081526040808320815160608101835288815280840188905260ff87169281019290925280546001810182559084529190922082516003909202019081906113c09082612327565b50602082015160018201906113d59082612327565b50604091820151600291909101805460ff191660ff9092169190911790555185907f157a617a993f737765709b2bca2e78b82e9502d1538263e9a5617f0842074f3690600090a25050505050565b60006001600081546114349061228b565b91905081905590506000604051806101400160405280336001600160a01b031681526020018381526020018d81526020018c81526020018b815260200186600281111561148357611483611a15565b815260ff86166020808301919091526000604080840182905260608401829052608090930181905285815260098252829020835181546001600160a01b0319166001600160a01b0390911617815590830151600182015590820151919250829160028201906114f29082612327565b50606082015160038201906115079082612327565b506080820151600482015560a082015160058201805460ff1916600183600281111561153557611535611a15565b021790555060c082015160058201805461ff00191661010060ff909316830217905560e083015160068301558201516007820155610120909101516008909101805460ff1916911515919091179055611592828a8a8a8a88611871565b336001600160a01b0316827fdb8d293a7b6910d3b1e68123251716e6334b263ea99c11f208867fd0dd5523408e6040516115cc919061248a565b60405180910390a3600480549060006115e48361228b565b9190505550505050505050505050505050565b60008381526005602052604090206001015483906001600160a01b031633146116325760405162461bcd60e51b81526004016102a7906123fa565b6000848152600860209081526040808320815180830190925286825260ff861682840152805460018101825590845291909220825160029092020190819061167a9082612327565b50602091909101516001909101805460ff191660ff90921691909117905560405133907f637e27f17a25fb1b5a05bc443c24a185895add717297be545dca2896b20789e5906116ca90869061248a565b60405180910390a250505050565b60008181526009602052604090205481906001600160a01b031633146117105760405162461bcd60e51b81526004016102a790612431565b6000828152600a60205260409020546117915760405162461bcd60e51b815260206004820152603760248201527f5265717569726564207465636873206d7573742062652073706563696669656460448201527f206265666f726520706f7374696e6720746865206a6f6200000000000000000060648201526084016102a7565b506000908152600960205260409020600801805460ff19166001179055565b600081815260096020526040812060070154156117f057600082815260096020526040902060078101546006909101546117ea9190612468565b92915050565b506000919050565b919050565b60008281526009602052604090205482906001600160a01b031633146118355760405162461bcd60e51b81526004016102a790612431565b6000838152600b602090815260408083208151808401909252858252805460018101825590845291909220825191019081906112eb9082612327565b6040805160a081018252868152602080820187905281830186905260608201859052608082018490526000898152600d90915291909120815181906118b69082612327565b50602082015160018201906118cb9082612327565b50604082015160028201906118e09082612327565b50606082015160038201906118f59082612327565b506080820151600482019061190a9082612327565b505050505050505050565b60405180610140016040528060006001600160a01b03168152602001600081526020016060815260200160608152602001600081526020016000600281111561196057611960611a15565b8152600060208201819052604082018190526060820181905260809091015290565b6040518061016001604052806000815260200160006001600160a01b03168152602001606081526020016060815260200160608152602001600060028111156119cd576119cd611a15565b815260200160608152602001600060ff168152602001600060ff16815260200160008152602001600081525090565b600060208284031215611a0e57600080fd5b5035919050565b634e487b7160e01b600052602160045260246000fd5b60038110611a4957634e487b7160e01b600052602160045260246000fd5b9052565b602081016117ea8284611a2b565b634e487b7160e01b600052604160045260246000fd5b600082601f830112611a8257600080fd5b813567ffffffffffffffff80821115611a9d57611a9d611a5b565b604051601f8301601f19908116603f01168101908282118183101715611ac557611ac5611a5b565b81604052838152866020858801011115611ade57600080fd5b836020870160208301376000602085830101528094505050505092915050565b8035600381106117f857600080fd5b803560ff811681146117f857600080fd5b600080600080600080600060e0888a031215611b3957600080fd5b873567ffffffffffffffff80821115611b5157600080fd5b611b5d8b838c01611a71565b985060208a0135915080821115611b7357600080fd5b611b7f8b838c01611a71565b975060408a0135915080821115611b9557600080fd5b611ba18b838c01611a71565b965060608a0135915080821115611bb757600080fd5b50611bc48a828b01611a71565b945050611bd360808901611afe565b9250611be160a08901611b0d565b9150611bef60c08901611b0d565b905092959891949750929550565b600080600080600060a08688031215611c1557600080fd5b85359450602086013567ffffffffffffffff80821115611c3457600080fd5b611c4089838a01611a71565b95506040880135915080821115611c5657600080fd5b50611c6388828901611a71565b9598949750949560608101359550608001359392505050565b6000815180845260005b81811015611ca257602081850181015186830182015201611c86565b506000602082860101526020601f19601f83011685010191505092915050565b6000815160a08452611cd760a0850182611c7c565b905060208301518482036020860152611cf08282611c7c565b91505060408301518482036040860152611d0a8282611c7c565b91505060608301518482036060860152611d248282611c7c565b91505060808301518482036080860152611d3e8282611c7c565b95945050505050565b600081518084526020808501808196508360051b8101915082860160005b85811015611d97578284038952815151858552611d8486860182611c7c565b9986019994505090840190600101611d65565b5091979650505050505050565b60808152611dbe6080820186516001600160a01b03169052565b602085015160a0820152600060408601516101408060c0850152611de66101c0850183611c7c565b91506060880151607f198584030160e0860152611e038382611c7c565b9250506080880151610100818187015260a08a01519150610120611e2981880184611a2b565b60c08b015160ff169387019390935260e08a01516101608701528901516101808601525087015115156101a08401528281036020840152611e6a8187611cc2565b90508281036040840152611e7e8186611d47565b90508281036060840152611e928185611d47565b979650505050505050565b602081528151602082015260006020830151611ec460408401826001600160a01b03169052565b506040830151610160806060850152611ee1610180850183611c7c565b91506060850151601f1980868503016080870152611eff8483611c7c565b935060808701519150808685030160a0870152611f1c8483611c7c565b935060a08701519150611f3260c0870183611a2b565b60c08701519150808685030160e087015250611f4e8382611c7c565b92505060e0850151610100611f678187018360ff169052565b8601519050610120611f7d8682018360ff169052565b860151610140868101919091529095015193019290925250919050565b60008060408385031215611fad57600080fd5b82359150611fbd60208401611b0d565b90509250929050565b60008060408385031215611fd957600080fd5b50508035926020909101359150565b60008060408385031215611ffb57600080fd5b82359150602083013567ffffffffffffffff81111561201957600080fd5b61202585828601611a71565b9150509250929050565b6000806000806080858703121561204557600080fd5b84359350602085013567ffffffffffffffff8082111561206457600080fd5b61207088838901611a71565b9450604087013591508082111561208657600080fd5b5061209387828801611a71565b9250506120a260608601611b0d565b905092959194509250565b6000806000806000806000806000806101408b8d0312156120cd57600080fd5b8a3567ffffffffffffffff808211156120e557600080fd5b6120f18e838f01611a71565b9b5060208d013591508082111561210757600080fd5b6121138e838f01611a71565b9a5060408d0135995060608d013591508082111561213057600080fd5b61213c8e838f01611a71565b985060808d013591508082111561215257600080fd5b61215e8e838f01611a71565b975060a08d013591508082111561217457600080fd5b6121808e838f01611a71565b965060c08d013591508082111561219657600080fd5b6121a28e838f01611a71565b95506121b060e08e01611afe565b94506121bf6101008e01611b0d565b93506101208d01359150808211156121d657600080fd5b506121e38d828e01611a71565b9150509295989b9194979a5092959850565b60008060006060848603121561220a57600080fd5b83359250602084013567ffffffffffffffff81111561222857600080fd5b61223486828701611a71565b92505061224360408501611b0d565b90509250925092565b6020808252600f908201526e24b73b30b634b2103537b11024b21760891b604082015260600190565b634e487b7160e01b600052601160045260246000fd5b60006001820161229d5761229d612275565b5060010190565b600181811c908216806122b857607f821691505b6020821081036102c957634e487b7160e01b600052602260045260246000fd5b601f82111561232257600081815260208120601f850160051c810160208610156122ff5750805b601f850160051c820191505b8181101561231e5782815560010161230b565b5050505b505050565b815167ffffffffffffffff81111561234157612341611a5b565b6123558161234f84546122a4565b846122d8565b602080601f83116001811461238a57600084156123725750858301515b600019600386901b1c1916600185901b17855561231e565b600085815260208120601f198616915b828110156123b95788860151825594840194600190910190840161239a565b50858210156123d75787850151600019600388901b60f8161c191681555b5050505050600190811b01905550565b808201808211156117ea576117ea612275565b6020808252601d908201527f596f752063616e2774206d6f6469667920666f7220746869732049642e000000604082015260600190565b6020808252601a908201527f4f6e6c79206a6f62206f776e65722063616e206d6f646966792e000000000000604082015260600190565b60008261248557634e487b7160e01b600052601260045260246000fd5b500490565b60208152600061249d6020830184611c7c565b939250505056fea26469706673582212203a69aa47ec3ed90bd4fc5767677dccbced8bf6d6f74fb19bb01f36039d45c97264736f6c63430008120033",
			"opcodes": "PUSH1 0x80 PUSH1 0x40 MSTORE CALLVALUE DUP1 ISZERO PUSH2 0x10 JUMPI PUSH1 0x0 DUP1 REVERT JUMPDEST POP PUSH1 0x0 DUP1 SLOAD PUSH1 0x1 PUSH1 0x1 PUSH1 0xA0 SHL SUB NOT AND CALLER OR DUP2 SSTORE PUSH1 0x1 DUP2 SWAP1 SSTORE PUSH1 0x2 DUP2 SWAP1 SSTORE PUSH1 0x3 DUP2 SWAP1 SSTORE PUSH1 0x4 SSTORE PUSH2 0x24DA DUP1 PUSH2 0x44 PUSH1 0x0 CODECOPY PUSH1 0x0 RETURN INVALID PUSH1 0x80 PUSH1 0x40 MSTORE CALLVALUE DUP1 ISZERO PUSH2 0x10 JUMPI PUSH1 0x0 DUP1 REVERT JUMPDEST POP PUSH1 0x4 CALLDATASIZE LT PUSH2 0xFF JUMPI PUSH1 0x0 CALLDATALOAD PUSH1 0xE0 SHR DUP1 PUSH4 0x62EA8013 GT PUSH2 0x97 JUMPI DUP1 PUSH4 0x81740E5B GT PUSH2 0x66 JUMPI DUP1 PUSH4 0x81740E5B EQ PUSH2 0x22B JUMPI DUP1 PUSH4 0x983FCE0E EQ PUSH2 0x23E JUMPI DUP1 PUSH4 0xB4A039D5 EQ PUSH2 0x251 JUMPI DUP1 PUSH4 0xDAF4D0A7 EQ PUSH2 0x264 JUMPI PUSH1 0x0 DUP1 REVERT JUMPDEST DUP1 PUSH4 0x62EA8013 EQ PUSH2 0x1DF JUMPI DUP1 PUSH4 0x655D864F EQ PUSH2 0x1F2 JUMPI DUP1 PUSH4 0x6CD2E00A EQ PUSH2 0x205 JUMPI DUP1 PUSH4 0x77ED08C9 EQ PUSH2 0x218 JUMPI PUSH1 0x0 DUP1 REVERT JUMPDEST DUP1 PUSH4 0x24873CB7 GT PUSH2 0xD3 JUMPI DUP1 PUSH4 0x24873CB7 EQ PUSH2 0x178 JUMPI DUP1 PUSH4 0x34CADE13 EQ PUSH2 0x18B JUMPI DUP1 PUSH4 0x402D364E EQ PUSH2 0x1AB JUMPI DUP1 PUSH4 0x50F022B0 EQ PUSH2 0x1CC JUMPI PUSH1 0x0 DUP1 REVERT JUMPDEST DUP1 PUSH3 0x511198 EQ PUSH2 0x104 JUMPI DUP1 PUSH4 0x8F5A112 EQ PUSH2 0x12D JUMPI DUP1 PUSH4 0x118AF2FB EQ PUSH2 0x142 JUMPI DUP1 PUSH4 0x22C19F8B EQ PUSH2 0x155 JUMPI JUMPDEST PUSH1 0x0 DUP1 REVERT JUMPDEST PUSH2 0x117 PUSH2 0x112 CALLDATASIZE PUSH1 0x4 PUSH2 0x19FC JUMP JUMPDEST PUSH2 0x277 JUMP JUMPDEST PUSH1 0x40 MLOAD PUSH2 0x124 SWAP2 SWAP1 PUSH2 0x1A4D JUMP JUMPDEST PUSH1 0x40 MLOAD DUP1 SWAP2 SUB SWAP1 RETURN JUMPDEST PUSH2 0x140 PUSH2 0x13B CALLDATASIZE PUSH1 0x4 PUSH2 0x1B1E JUMP JUMPDEST PUSH2 0x2CF JUMP JUMPDEST STOP JUMPDEST PUSH2 0x140 PUSH2 0x150 CALLDATASIZE PUSH1 0x4 PUSH2 0x1BFD JUMP JUMPDEST PUSH2 0x540 JUMP JUMPDEST PUSH2 0x168 PUSH2 0x163 CALLDATASIZE PUSH1 0x4 PUSH2 0x19FC JUMP JUMPDEST PUSH2 0x62C JUMP JUMPDEST PUSH1 0x40 MLOAD PUSH2 0x124 SWAP5 SWAP4 SWAP3 SWAP2 SWAP1 PUSH2 0x1DA4 JUMP JUMPDEST PUSH2 0x140 PUSH2 0x186 CALLDATASIZE PUSH1 0x4 PUSH2 0x19FC JUMP JUMPDEST PUSH2 0xD22 JUMP JUMPDEST PUSH2 0x19E PUSH2 0x199 CALLDATASIZE PUSH1 0x4 PUSH2 0x19FC JUMP JUMPDEST PUSH2 0xD76 JUMP JUMPDEST PUSH1 0x40 MLOAD PUSH2 0x124 SWAP2 SWAP1 PUSH2 0x1E9D JUMP JUMPDEST PUSH2 0x1BE PUSH2 0x1B9 CALLDATASIZE PUSH1 0x4 PUSH2 0x19FC JUMP JUMPDEST PUSH2 0x1099 JUMP JUMPDEST PUSH1 0x40 MLOAD SWAP1 DUP2 MSTORE PUSH1 0x20 ADD PUSH2 0x124 JUMP JUMPDEST PUSH2 0x140 PUSH2 0x1DA CALLDATASIZE PUSH1 0x4 PUSH2 0x1F9A JUMP JUMPDEST PUSH2 0x10D8 JUMP JUMPDEST PUSH2 0x140 PUSH2 0x1ED CALLDATASIZE PUSH1 0x4 PUSH2 0x1FC6 JUMP JUMPDEST PUSH2 0x11D0 JUMP JUMPDEST PUSH2 0x140 PUSH2 0x200 CALLDATASIZE PUSH1 0x4 PUSH2 0x1FE8 JUMP JUMPDEST PUSH2 0x1277 JUMP JUMPDEST PUSH2 0x140 PUSH2 0x213 CALLDATASIZE PUSH1 0x4 PUSH2 0x202F JUMP JUMPDEST PUSH2 0x1334 JUMP JUMPDEST PUSH2 0x140 PUSH2 0x226 CALLDATASIZE PUSH1 0x4 PUSH2 0x20AD JUMP JUMPDEST PUSH2 0x1423 JUMP JUMPDEST PUSH2 0x140 PUSH2 0x239 CALLDATASIZE PUSH1 0x4 PUSH2 0x21F5 JUMP JUMPDEST PUSH2 0x15F7 JUMP JUMPDEST PUSH2 0x140 PUSH2 0x24C CALLDATASIZE PUSH1 0x4 PUSH2 0x19FC JUMP JUMPDEST PUSH2 0x16D8 JUMP JUMPDEST PUSH2 0x1BE PUSH2 0x25F CALLDATASIZE PUSH1 0x4 PUSH2 0x19FC JUMP JUMPDEST PUSH2 0x17B0 JUMP JUMPDEST PUSH2 0x140 PUSH2 0x272 CALLDATASIZE PUSH1 0x4 PUSH2 0x1FE8 JUMP JUMPDEST PUSH2 0x17FD JUMP JUMPDEST PUSH1 0x0 DUP2 PUSH1 0x0 DUP2 GT DUP1 ISZERO PUSH2 0x28B JUMPI POP PUSH1 0x3 SLOAD DUP2 LT JUMPDEST PUSH2 0x2B0 JUMPI PUSH1 0x40 MLOAD PUSH3 0x461BCD PUSH1 0xE5 SHL DUP2 MSTORE PUSH1 0x4 ADD PUSH2 0x2A7 SWAP1 PUSH2 0x224C JUMP JUMPDEST PUSH1 0x40 MLOAD DUP1 SWAP2 SUB SWAP1 REVERT JUMPDEST PUSH1 0x0 DUP4 DUP2 MSTORE PUSH1 0x5 PUSH1 0x20 DUP2 SWAP1 MSTORE PUSH1 0x40 SWAP1 SWAP2 KECCAK256 ADD SLOAD PUSH1 0xFF AND SWAP2 POP JUMPDEST POP SWAP2 SWAP1 POP JUMP JUMPDEST CALLER PUSH1 0x0 SWAP1 DUP2 MSTORE PUSH1 0xC PUSH1 0x20 MSTORE PUSH1 0x40 SWAP1 KECCAK256 SLOAD ISZERO PUSH2 0x352 JUMPI PUSH1 0x40 MLOAD PUSH3 0x461BCD PUSH1 0xE5 SHL DUP2 MSTORE PUSH1 0x20 PUSH1 0x4 DUP3 ADD MSTORE PUSH1 0x3E PUSH1 0x24 DUP3 ADD MSTORE PUSH32 0x596F75206861766520616C726561647920726567697374657265642061732061 PUSH1 0x44 DUP3 ADD MSTORE PUSH32 0x6E206170706C6963616E7420696E20746865204A6F6220506F7274616C2E0000 PUSH1 0x64 DUP3 ADD MSTORE PUSH1 0x84 ADD PUSH2 0x2A7 JUMP JUMPDEST PUSH1 0x0 PUSH1 0x2 PUSH1 0x0 DUP2 SLOAD PUSH2 0x363 SWAP1 PUSH2 0x228B JUMP JUMPDEST SWAP2 SWAP1 POP DUP2 SWAP1 SSTORE SWAP1 POP PUSH1 0x0 PUSH1 0x40 MLOAD DUP1 PUSH2 0x160 ADD PUSH1 0x40 MSTORE DUP1 DUP4 DUP2 MSTORE PUSH1 0x20 ADD CALLER PUSH1 0x1 PUSH1 0x1 PUSH1 0xA0 SHL SUB AND DUP2 MSTORE PUSH1 0x20 ADD DUP11 DUP2 MSTORE PUSH1 0x20 ADD DUP10 DUP2 MSTORE PUSH1 0x20 ADD DUP9 DUP2 MSTORE PUSH1 0x20 ADD DUP7 PUSH1 0x2 DUP2 GT ISZERO PUSH2 0x3B2 JUMPI PUSH2 0x3B2 PUSH2 0x1A15 JUMP JUMPDEST DUP2 MSTORE PUSH1 0x20 ADD DUP8 DUP2 MSTORE PUSH1 0x20 ADD DUP6 PUSH1 0xFF AND DUP2 MSTORE PUSH1 0x20 ADD DUP5 PUSH1 0xFF AND DUP2 MSTORE PUSH1 0x20 ADD PUSH1 0x0 DUP2 MSTORE PUSH1 0x20 ADD PUSH1 0x0 DUP2 MSTORE POP SWAP1 POP DUP1 PUSH1 0x5 PUSH1 0x0 DUP5 DUP2 MSTORE PUSH1 0x20 ADD SWAP1 DUP2 MSTORE PUSH1 0x20 ADD PUSH1 0x0 KECCAK256 PUSH1 0x0 DUP3 ADD MLOAD DUP2 PUSH1 0x0 ADD SSTORE PUSH1 0x20 DUP3 ADD MLOAD DUP2 PUSH1 0x1 ADD PUSH1 0x0 PUSH2 0x100 EXP DUP2 SLOAD DUP2 PUSH1 0x1 PUSH1 0x1 PUSH1 0xA0 SHL SUB MUL NOT AND SWAP1 DUP4 PUSH1 0x1 PUSH1 0x1 PUSH1 0xA0 SHL SUB AND MUL OR SWAP1 SSTORE POP PUSH1 0x40 DUP3 ADD MLOAD DUP2 PUSH1 0x2 ADD SWAP1 DUP2 PUSH2 0x43D SWAP2 SWAP1 PUSH2 0x2327 JUMP JUMPDEST POP PUSH1 0x60 DUP3 ADD MLOAD PUSH1 0x3 DUP3 ADD SWAP1 PUSH2 0x452 SWAP1 DUP3 PUSH2 0x2327 JUMP JUMPDEST POP PUSH1 0x80 DUP3 ADD MLOAD PUSH1 0x4 DUP3 ADD SWAP1 PUSH2 0x467 SWAP1 DUP3 PUSH2 0x2327 JUMP JUMPDEST POP PUSH1 0xA0 DUP3 ADD MLOAD PUSH1 0x5 DUP3 ADD DUP1 SLOAD PUSH1 0xFF NOT AND PUSH1 0x1 DUP4 PUSH1 0x2 DUP2 GT ISZERO PUSH2 0x48B JUMPI PUSH2 0x48B PUSH2 0x1A15 JUMP JUMPDEST MUL OR SWAP1 SSTORE POP PUSH1 0xC0 DUP3 ADD MLOAD PUSH1 0x6 DUP3 ADD SWAP1 PUSH2 0x4A4 SWAP1 DUP3 PUSH2 0x2327 JUMP JUMPDEST POP PUSH1 0xE0 DUP3 ADD MLOAD PUSH1 0x7 DUP3 ADD DUP1 SLOAD PUSH2 0x100 DUP1 DUP7 ADD MLOAD PUSH1 0xFF SWAP5 DUP6 AND PUSH2 0xFFFF NOT SWAP1 SWAP4 AND SWAP3 SWAP1 SWAP3 OR SWAP4 SWAP1 SWAP2 AND MUL SWAP2 SWAP1 SWAP2 OR SWAP1 SSTORE PUSH2 0x120 DUP3 ADD MLOAD PUSH1 0x8 DUP3 ADD SSTORE PUSH2 0x140 SWAP1 SWAP2 ADD MLOAD PUSH1 0x9 SWAP1 SWAP2 ADD SSTORE PUSH1 0x40 MLOAD CALLER DUP2 MSTORE PUSH32 0xEBF1B758105DF04A8BB8D90C425719A46421B7BEEDC5D5098690437304FE6961 SWAP1 PUSH1 0x20 ADD PUSH1 0x40 MLOAD DUP1 SWAP2 SUB SWAP1 LOG1 PUSH1 0x1 PUSH1 0x3 PUSH1 0x0 DUP3 DUP3 SLOAD PUSH2 0x530 SWAP2 SWAP1 PUSH2 0x23E7 JUMP JUMPDEST SWAP1 SWAP2 SSTORE POP POP POP POP POP POP POP POP POP POP POP JUMP JUMPDEST PUSH1 0x0 DUP6 DUP2 MSTORE PUSH1 0x5 PUSH1 0x20 MSTORE PUSH1 0x40 SWAP1 KECCAK256 PUSH1 0x1 ADD SLOAD DUP6 SWAP1 PUSH1 0x1 PUSH1 0x1 PUSH1 0xA0 SHL SUB AND CALLER EQ PUSH2 0x57B JUMPI PUSH1 0x40 MLOAD PUSH3 0x461BCD PUSH1 0xE5 SHL DUP2 MSTORE PUSH1 0x4 ADD PUSH2 0x2A7 SWAP1 PUSH2 0x23FA JUMP JUMPDEST PUSH1 0x0 DUP7 DUP2 MSTORE PUSH1 0x6 PUSH1 0x20 SWAP1 DUP2 MSTORE PUSH1 0x40 DUP1 DUP4 KECCAK256 DUP2 MLOAD PUSH1 0x80 DUP2 ADD DUP4 MSTORE DUP10 DUP2 MSTORE DUP1 DUP5 ADD DUP10 SWAP1 MSTORE SWAP2 DUP3 ADD DUP8 SWAP1 MSTORE PUSH1 0x60 DUP3 ADD DUP7 SWAP1 MSTORE DUP1 SLOAD PUSH1 0x1 DUP2 ADD DUP3 SSTORE SWAP1 DUP5 MSTORE SWAP2 SWAP1 SWAP3 KECCAK256 DUP3 MLOAD PUSH1 0x4 SWAP1 SWAP3 MUL ADD SWAP1 DUP2 SWAP1 PUSH2 0x5CE SWAP1 DUP3 PUSH2 0x2327 JUMP JUMPDEST POP PUSH1 0x20 DUP3 ADD MLOAD PUSH1 0x1 DUP3 ADD SWAP1 PUSH2 0x5E3 SWAP1 DUP3 PUSH2 0x2327 JUMP JUMPDEST POP PUSH1 0x40 DUP3 DUP2 ADD MLOAD PUSH1 0x2 DUP4 ADD SSTORE PUSH1 0x60 SWAP1 SWAP3 ADD MLOAD PUSH1 0x3 SWAP1 SWAP2 ADD SSTORE MLOAD DUP7 SWAP1 PUSH32 0xAE06E13A426534CC626A1E12740D9FFCAF9578F1680378BE7817DA8BBAA9514B SWAP1 PUSH1 0x0 SWAP1 LOG2 POP POP POP POP POP POP JUMP JUMPDEST PUSH2 0x634 PUSH2 0x1915 JUMP JUMPDEST PUSH2 0x666 PUSH1 0x40 MLOAD DUP1 PUSH1 0xA0 ADD PUSH1 0x40 MSTORE DUP1 PUSH1 0x60 DUP2 MSTORE PUSH1 0x20 ADD PUSH1 0x60 DUP2 MSTORE PUSH1 0x20 ADD PUSH1 0x60 DUP2 MSTORE PUSH1 0x20 ADD PUSH1 0x60 DUP2 MSTORE PUSH1 0x20 ADD PUSH1 0x60 DUP2 MSTORE POP SWAP1 JUMP JUMPDEST PUSH1 0x0 DUP4 DUP2 MSTORE PUSH1 0x9 PUSH1 0x20 SWAP1 DUP2 MSTORE PUSH1 0x40 DUP1 DUP4 KECCAK256 PUSH1 0xD DUP4 MSTORE DUP2 DUP5 KECCAK256 PUSH1 0xA DUP5 MSTORE DUP3 DUP6 KECCAK256 PUSH1 0xB DUP6 MSTORE SWAP5 DUP4 SWAP1 KECCAK256 DUP4 MLOAD PUSH2 0x140 DUP2 ADD DUP6 MSTORE DUP4 SLOAD PUSH1 0x1 PUSH1 0x1 PUSH1 0xA0 SHL SUB AND DUP2 MSTORE PUSH1 0x1 DUP5 ADD SLOAD SWAP6 DUP2 ADD SWAP6 SWAP1 SWAP6 MSTORE PUSH1 0x2 DUP4 ADD DUP1 SLOAD PUSH1 0x60 SWAP8 DUP9 SWAP8 SWAP6 SWAP7 SWAP5 SWAP6 SWAP1 SWAP5 SWAP1 SWAP3 DUP8 SWAP3 SWAP2 DUP5 ADD SWAP2 PUSH2 0x6D1 SWAP1 PUSH2 0x22A4 JUMP JUMPDEST DUP1 PUSH1 0x1F ADD PUSH1 0x20 DUP1 SWAP2 DIV MUL PUSH1 0x20 ADD PUSH1 0x40 MLOAD SWAP1 DUP2 ADD PUSH1 0x40 MSTORE DUP1 SWAP3 SWAP2 SWAP1 DUP2 DUP2 MSTORE PUSH1 0x20 ADD DUP3 DUP1 SLOAD PUSH2 0x6FD SWAP1 PUSH2 0x22A4 JUMP JUMPDEST DUP1 ISZERO PUSH2 0x74A JUMPI DUP1 PUSH1 0x1F LT PUSH2 0x71F JUMPI PUSH2 0x100 DUP1 DUP4 SLOAD DIV MUL DUP4 MSTORE SWAP2 PUSH1 0x20 ADD SWAP2 PUSH2 0x74A JUMP JUMPDEST DUP3 ADD SWAP2 SWAP1 PUSH1 0x0 MSTORE PUSH1 0x20 PUSH1 0x0 KECCAK256 SWAP1 JUMPDEST DUP2 SLOAD DUP2 MSTORE SWAP1 PUSH1 0x1 ADD SWAP1 PUSH1 0x20 ADD DUP1 DUP4 GT PUSH2 0x72D JUMPI DUP3 SWAP1 SUB PUSH1 0x1F AND DUP3 ADD SWAP2 JUMPDEST POP POP POP POP POP DUP2 MSTORE PUSH1 0x20 ADD PUSH1 0x3 DUP3 ADD DUP1 SLOAD PUSH2 0x763 SWAP1 PUSH2 0x22A4 JUMP JUMPDEST DUP1 PUSH1 0x1F ADD PUSH1 0x20 DUP1 SWAP2 DIV MUL PUSH1 0x20 ADD PUSH1 0x40 MLOAD SWAP1 DUP2 ADD PUSH1 0x40 MSTORE DUP1 SWAP3 SWAP2 SWAP1 DUP2 DUP2 MSTORE PUSH1 0x20 ADD DUP3 DUP1 SLOAD PUSH2 0x78F SWAP1 PUSH2 0x22A4 JUMP JUMPDEST DUP1 ISZERO PUSH2 0x7DC JUMPI DUP1 PUSH1 0x1F LT PUSH2 0x7B1 JUMPI PUSH2 0x100 DUP1 DUP4 SLOAD DIV MUL DUP4 MSTORE SWAP2 PUSH1 0x20 ADD SWAP2 PUSH2 0x7DC JUMP JUMPDEST DUP3 ADD SWAP2 SWAP1 PUSH1 0x0 MSTORE PUSH1 0x20 PUSH1 0x0 KECCAK256 SWAP1 JUMPDEST DUP2 SLOAD DUP2 MSTORE SWAP1 PUSH1 0x1 ADD SWAP1 PUSH1 0x20 ADD DUP1 DUP4 GT PUSH2 0x7BF JUMPI DUP3 SWAP1 SUB PUSH1 0x1F AND DUP3 ADD SWAP2 JUMPDEST POP POP POP SWAP2 DUP4 MSTORE POP POP PUSH1 0x4 DUP3 ADD SLOAD PUSH1 0x20 DUP3 ADD MSTORE PUSH1 0x5 DUP3 ADD SLOAD PUSH1 0x40 SWAP1 SWAP2 ADD SWAP1 PUSH1 0xFF AND PUSH1 0x2 DUP2 GT ISZERO PUSH2 0x80D JUMPI PUSH2 0x80D PUSH2 0x1A15 JUMP JUMPDEST PUSH1 0x2 DUP2 GT ISZERO PUSH2 0x81E JUMPI PUSH2 0x81E PUSH2 0x1A15 JUMP JUMPDEST DUP2 MSTORE PUSH1 0x5 DUP3 ADD SLOAD PUSH1 0xFF PUSH2 0x100 SWAP1 SWAP2 DIV DUP2 AND PUSH1 0x20 DUP4 ADD MSTORE PUSH1 0x6 DUP4 ADD SLOAD PUSH1 0x40 DUP1 DUP5 ADD SWAP2 SWAP1 SWAP2 MSTORE PUSH1 0x7 DUP5 ADD SLOAD PUSH1 0x60 DUP5 ADD MSTORE PUSH1 0x8 SWAP1 SWAP4 ADD SLOAD AND ISZERO ISZERO PUSH1 0x80 SWAP1 SWAP2 ADD MSTORE DUP1 MLOAD PUSH1 0xA0 DUP2 ADD SWAP1 SWAP2 MSTORE DUP5 SLOAD SWAP2 SWAP6 POP SWAP1 DUP5 SWAP1 DUP3 SWAP1 DUP3 SWAP1 PUSH2 0x879 SWAP1 PUSH2 0x22A4 JUMP JUMPDEST DUP1 PUSH1 0x1F ADD PUSH1 0x20 DUP1 SWAP2 DIV MUL PUSH1 0x20 ADD PUSH1 0x40 MLOAD SWAP1 DUP2 ADD PUSH1 0x40 MSTORE DUP1 SWAP3 SWAP2 SWAP1 DUP2 DUP2 MSTORE PUSH1 0x20 ADD DUP3 DUP1 SLOAD PUSH2 0x8A5 SWAP1 PUSH2 0x22A4 JUMP JUMPDEST DUP1 ISZERO PUSH2 0x8F2 JUMPI DUP1 PUSH1 0x1F LT PUSH2 0x8C7 JUMPI PUSH2 0x100 DUP1 DUP4 SLOAD DIV MUL DUP4 MSTORE SWAP2 PUSH1 0x20 ADD SWAP2 PUSH2 0x8F2 JUMP JUMPDEST DUP3 ADD SWAP2 SWAP1 PUSH1 0x0 MSTORE PUSH1 0x20 PUSH1 0x0 KECCAK256 SWAP1 JUMPDEST DUP2 SLOAD DUP2 MSTORE SWAP1 PUSH1 0x1 ADD SWAP1 PUSH1 0x20 ADD DUP1 DUP4 GT PUSH2 0x8D5 JUMPI DUP3 SWAP1 SUB PUSH1 0x1F AND DUP3 ADD SWAP2 JUMPDEST POP POP POP POP POP DUP2 MSTORE PUSH1 0x20 ADD PUSH1 0x1 DUP3 ADD DUP1 SLOAD PUSH2 0x90B SWAP1 PUSH2 0x22A4 JUMP JUMPDEST DUP1 PUSH1 0x1F ADD PUSH1 0x20 DUP1 SWAP2 DIV MUL PUSH1 0x20 ADD PUSH1 0x40 MLOAD SWAP1 DUP2 ADD PUSH1 0x40 MSTORE DUP1 SWAP3 SWAP2 SWAP1 DUP2 DUP2 MSTORE PUSH1 0x20 ADD DUP3 DUP1 SLOAD PUSH2 0x937 SWAP1 PUSH2 0x22A4 JUMP JUMPDEST DUP1 ISZERO PUSH2 0x984 JUMPI DUP1 PUSH1 0x1F LT PUSH2 0x959 JUMPI PUSH2 0x100 DUP1 DUP4 SLOAD DIV MUL DUP4 MSTORE SWAP2 PUSH1 0x20 ADD SWAP2 PUSH2 0x984 JUMP JUMPDEST DUP3 ADD SWAP2 SWAP1 PUSH1 0x0 MSTORE PUSH1 0x20 PUSH1 0x0 KECCAK256 SWAP1 JUMPDEST DUP2 SLOAD DUP2 MSTORE SWAP1 PUSH1 0x1 ADD SWAP1 PUSH1 0x20 ADD DUP1 DUP4 GT PUSH2 0x967 JUMPI DUP3 SWAP1 SUB PUSH1 0x1F AND DUP3 ADD SWAP2 JUMPDEST POP POP POP POP POP DUP2 MSTORE PUSH1 0x20 ADD PUSH1 0x2 DUP3 ADD DUP1 SLOAD PUSH2 0x99D SWAP1 PUSH2 0x22A4 JUMP JUMPDEST DUP1 PUSH1 0x1F ADD PUSH1 0x20 DUP1 SWAP2 DIV MUL PUSH1 0x20 ADD PUSH1 0x40 MLOAD SWAP1 DUP2 ADD PUSH1 0x40 MSTORE DUP1 SWAP3 SWAP2 SWAP1 DUP2 DUP2 MSTORE PUSH1 0x20 ADD DUP3 DUP1 SLOAD PUSH2 0x9C9 SWAP1 PUSH2 0x22A4 JUMP JUMPDEST DUP1 ISZERO PUSH2 0xA16 JUMPI DUP1 PUSH1 0x1F LT PUSH2 0x9EB JUMPI PUSH2 0x100 DUP1 DUP4 SLOAD DIV MUL DUP4 MSTORE SWAP2 PUSH1 0x20 ADD SWAP2 PUSH2 0xA16 JUMP JUMPDEST DUP3 ADD SWAP2 SWAP1 PUSH1 0x0 MSTORE PUSH1 0x20 PUSH1 0x0 KECCAK256 SWAP1 JUMPDEST DUP2 SLOAD DUP2 MSTORE SWAP1 PUSH1 0x1 ADD SWAP1 PUSH1 0x20 ADD DUP1 DUP4 GT PUSH2 0x9F9 JUMPI DUP3 SWAP1 SUB PUSH1 0x1F AND DUP3 ADD SWAP2 JUMPDEST POP POP POP POP POP DUP2 MSTORE PUSH1 0x20 ADD PUSH1 0x3 DUP3 ADD DUP1 SLOAD PUSH2 0xA2F SWAP1 PUSH2 0x22A4 JUMP JUMPDEST DUP1 PUSH1 0x1F ADD PUSH1 0x20 DUP1 SWAP2 DIV MUL PUSH1 0x20 ADD PUSH1 0x40 MLOAD SWAP1 DUP2 ADD PUSH1 0x40 MSTORE DUP1 SWAP3 SWAP2 SWAP1 DUP2 DUP2 MSTORE PUSH1 0x20 ADD DUP3 DUP1 SLOAD PUSH2 0xA5B SWAP1 PUSH2 0x22A4 JUMP JUMPDEST DUP1 ISZERO PUSH2 0xAA8 JUMPI DUP1 PUSH1 0x1F LT PUSH2 0xA7D JUMPI PUSH2 0x100 DUP1 DUP4 SLOAD DIV MUL DUP4 MSTORE SWAP2 PUSH1 0x20 ADD SWAP2 PUSH2 0xAA8 JUMP JUMPDEST DUP3 ADD SWAP2 SWAP1 PUSH1 0x0 MSTORE PUSH1 0x20 PUSH1 0x0 KECCAK256 SWAP1 JUMPDEST DUP2 SLOAD DUP2 MSTORE SWAP1 PUSH1 0x1 ADD SWAP1 PUSH1 0x20 ADD DUP1 DUP4 GT PUSH2 0xA8B JUMPI DUP3 SWAP1 SUB PUSH1 0x1F AND DUP3 ADD SWAP2 JUMPDEST POP POP POP POP POP DUP2 MSTORE PUSH1 0x20 ADD PUSH1 0x4 DUP3 ADD DUP1 SLOAD PUSH2 0xAC1 SWAP1 PUSH2 0x22A4 JUMP JUMPDEST DUP1 PUSH1 0x1F ADD PUSH1 0x20 DUP1 SWAP2 DIV MUL PUSH1 0x20 ADD PUSH1 0x40 MLOAD SWAP1 DUP2 ADD PUSH1 0x40 MSTORE DUP1 SWAP3 SWAP2 SWAP1 DUP2 DUP2 MSTORE PUSH1 0x20 ADD DUP3 DUP1 SLOAD PUSH2 0xAED SWAP1 PUSH2 0x22A4 JUMP JUMPDEST DUP1 ISZERO PUSH2 0xB3A JUMPI DUP1 PUSH1 0x1F LT PUSH2 0xB0F JUMPI PUSH2 0x100 DUP1 DUP4 SLOAD DIV MUL DUP4 MSTORE SWAP2 PUSH1 0x20 ADD SWAP2 PUSH2 0xB3A JUMP JUMPDEST DUP3 ADD SWAP2 SWAP1 PUSH1 0x0 MSTORE PUSH1 0x20 PUSH1 0x0 KECCAK256 SWAP1 JUMPDEST DUP2 SLOAD DUP2 MSTORE SWAP1 PUSH1 0x1 ADD SWAP1 PUSH1 0x20 ADD DUP1 DUP4 GT PUSH2 0xB1D JUMPI DUP3 SWAP1 SUB PUSH1 0x1F AND DUP3 ADD SWAP2 JUMPDEST POP POP POP POP POP DUP2 MSTORE POP POP SWAP3 POP DUP2 DUP1 SLOAD DUP1 PUSH1 0x20 MUL PUSH1 0x20 ADD PUSH1 0x40 MLOAD SWAP1 DUP2 ADD PUSH1 0x40 MSTORE DUP1 SWAP3 SWAP2 SWAP1 DUP2 DUP2 MSTORE PUSH1 0x20 ADD PUSH1 0x0 SWAP1 JUMPDEST DUP3 DUP3 LT ISZERO PUSH2 0xC26 JUMPI DUP4 DUP3 SWAP1 PUSH1 0x0 MSTORE PUSH1 0x20 PUSH1 0x0 KECCAK256 ADD PUSH1 0x40 MLOAD DUP1 PUSH1 0x20 ADD PUSH1 0x40 MSTORE SWAP1 DUP2 PUSH1 0x0 DUP3 ADD DUP1 SLOAD PUSH2 0xB95 SWAP1 PUSH2 0x22A4 JUMP JUMPDEST DUP1 PUSH1 0x1F ADD PUSH1 0x20 DUP1 SWAP2 DIV MUL PUSH1 0x20 ADD PUSH1 0x40 MLOAD SWAP1 DUP2 ADD PUSH1 0x40 MSTORE DUP1 SWAP3 SWAP2 SWAP1 DUP2 DUP2 MSTORE PUSH1 0x20 ADD DUP3 DUP1 SLOAD PUSH2 0xBC1 SWAP1 PUSH2 0x22A4 JUMP JUMPDEST DUP1 ISZERO PUSH2 0xC0E JUMPI DUP1 PUSH1 0x1F LT PUSH2 0xBE3 JUMPI PUSH2 0x100 DUP1 DUP4 SLOAD DIV MUL DUP4 MSTORE SWAP2 PUSH1 0x20 ADD SWAP2 PUSH2 0xC0E JUMP JUMPDEST DUP3 ADD SWAP2 SWAP1 PUSH1 0x0 MSTORE PUSH1 0x20 PUSH1 0x0 KECCAK256 SWAP1 JUMPDEST DUP2 SLOAD DUP2 MSTORE SWAP1 PUSH1 0x1 ADD SWAP1 PUSH1 0x20 ADD DUP1 DUP4 GT PUSH2 0xBF1 JUMPI DUP3 SWAP1 SUB PUSH1 0x1F AND DUP3 ADD SWAP2 JUMPDEST POP POP POP POP POP DUP2 MSTORE POP POP DUP2 MSTORE PUSH1 0x20 ADD SWAP1 PUSH1 0x1 ADD SWAP1 PUSH2 0xB66 JUMP JUMPDEST POP POP POP POP SWAP2 POP DUP1 DUP1 SLOAD DUP1 PUSH1 0x20 MUL PUSH1 0x20 ADD PUSH1 0x40 MLOAD SWAP1 DUP2 ADD PUSH1 0x40 MSTORE DUP1 SWAP3 SWAP2 SWAP1 DUP2 DUP2 MSTORE PUSH1 0x20 ADD PUSH1 0x0 SWAP1 JUMPDEST DUP3 DUP3 LT ISZERO PUSH2 0xD0D JUMPI DUP4 DUP3 SWAP1 PUSH1 0x0 MSTORE PUSH1 0x20 PUSH1 0x0 KECCAK256 ADD PUSH1 0x40 MLOAD DUP1 PUSH1 0x20 ADD PUSH1 0x40 MSTORE SWAP1 DUP2 PUSH1 0x0 DUP3 ADD DUP1 SLOAD PUSH2 0xC7C SWAP1 PUSH2 0x22A4 JUMP JUMPDEST DUP1 PUSH1 0x1F ADD PUSH1 0x20 DUP1 SWAP2 DIV MUL PUSH1 0x20 ADD PUSH1 0x40 MLOAD SWAP1 DUP2 ADD PUSH1 0x40 MSTORE DUP1 SWAP3 SWAP2 SWAP1 DUP2 DUP2 MSTORE PUSH1 0x20 ADD DUP3 DUP1 SLOAD PUSH2 0xCA8 SWAP1 PUSH2 0x22A4 JUMP JUMPDEST DUP1 ISZERO PUSH2 0xCF5 JUMPI DUP1 PUSH1 0x1F LT PUSH2 0xCCA JUMPI PUSH2 0x100 DUP1 DUP4 SLOAD DIV MUL DUP4 MSTORE SWAP2 PUSH1 0x20 ADD SWAP2 PUSH2 0xCF5 JUMP JUMPDEST DUP3 ADD SWAP2 SWAP1 PUSH1 0x0 MSTORE PUSH1 0x20 PUSH1 0x0 KECCAK256 SWAP1 JUMPDEST DUP2 SLOAD DUP2 MSTORE SWAP1 PUSH1 0x1 ADD SWAP1 PUSH1 0x20 ADD DUP1 DUP4 GT PUSH2 0xCD8 JUMPI DUP3 SWAP1 SUB PUSH1 0x1F AND DUP3 ADD SWAP2 JUMPDEST POP POP POP POP POP DUP2 MSTORE POP POP DUP2 MSTORE PUSH1 0x20 ADD SWAP1 PUSH1 0x1 ADD SWAP1 PUSH2 0xC4D JUMP JUMPDEST POP POP POP POP SWAP1 POP SWAP4 POP SWAP4 POP SWAP4 POP SWAP4 POP SWAP2 SWAP4 POP SWAP2 SWAP4 JUMP JUMPDEST PUSH1 0x0 DUP2 DUP2 MSTORE PUSH1 0x9 PUSH1 0x20 MSTORE PUSH1 0x40 SWAP1 KECCAK256 SLOAD DUP2 SWAP1 PUSH1 0x1 PUSH1 0x1 PUSH1 0xA0 SHL SUB AND CALLER EQ PUSH2 0xD5A JUMPI PUSH1 0x40 MLOAD PUSH3 0x461BCD PUSH1 0xE5 SHL DUP2 MSTORE PUSH1 0x4 ADD PUSH2 0x2A7 SWAP1 PUSH2 0x2431 JUMP JUMPDEST POP PUSH1 0x0 SWAP1 DUP2 MSTORE PUSH1 0x9 PUSH1 0x20 MSTORE PUSH1 0x40 SWAP1 KECCAK256 PUSH1 0x8 ADD DUP1 SLOAD PUSH1 0xFF NOT AND SWAP1 SSTORE JUMP JUMPDEST PUSH2 0xD7E PUSH2 0x1982 JUMP JUMPDEST DUP2 PUSH1 0x0 DUP2 GT DUP1 ISZERO PUSH2 0xD90 JUMPI POP PUSH1 0x3 SLOAD DUP2 LT JUMPDEST PUSH2 0xDAC JUMPI PUSH1 0x40 MLOAD PUSH3 0x461BCD PUSH1 0xE5 SHL DUP2 MSTORE PUSH1 0x4 ADD PUSH2 0x2A7 SWAP1 PUSH2 0x224C JUMP JUMPDEST PUSH1 0x0 DUP4 DUP2 MSTORE PUSH1 0x5 PUSH1 0x20 SWAP1 DUP2 MSTORE PUSH1 0x40 SWAP2 DUP3 SWAP1 KECCAK256 DUP3 MLOAD PUSH2 0x160 DUP2 ADD DUP5 MSTORE DUP2 SLOAD DUP2 MSTORE PUSH1 0x1 DUP3 ADD SLOAD PUSH1 0x1 PUSH1 0x1 PUSH1 0xA0 SHL SUB AND SWAP3 DUP2 ADD SWAP3 SWAP1 SWAP3 MSTORE PUSH1 0x2 DUP2 ADD DUP1 SLOAD SWAP3 SWAP4 SWAP2 SWAP3 SWAP2 DUP5 ADD SWAP2 PUSH2 0xDF7 SWAP1 PUSH2 0x22A4 JUMP JUMPDEST DUP1 PUSH1 0x1F ADD PUSH1 0x20 DUP1 SWAP2 DIV MUL PUSH1 0x20 ADD PUSH1 0x40 MLOAD SWAP1 DUP2 ADD PUSH1 0x40 MSTORE DUP1 SWAP3 SWAP2 SWAP1 DUP2 DUP2 MSTORE PUSH1 0x20 ADD DUP3 DUP1 SLOAD PUSH2 0xE23 SWAP1 PUSH2 0x22A4 JUMP JUMPDEST DUP1 ISZERO PUSH2 0xE70 JUMPI DUP1 PUSH1 0x1F LT PUSH2 0xE45 JUMPI PUSH2 0x100 DUP1 DUP4 SLOAD DIV MUL DUP4 MSTORE SWAP2 PUSH1 0x20 ADD SWAP2 PUSH2 0xE70 JUMP JUMPDEST DUP3 ADD SWAP2 SWAP1 PUSH1 0x0 MSTORE PUSH1 0x20 PUSH1 0x0 KECCAK256 SWAP1 JUMPDEST DUP2 SLOAD DUP2 MSTORE SWAP1 PUSH1 0x1 ADD SWAP1 PUSH1 0x20 ADD DUP1 DUP4 GT PUSH2 0xE53 JUMPI DUP3 SWAP1 SUB PUSH1 0x1F AND DUP3 ADD SWAP2 JUMPDEST POP POP POP POP POP DUP2 MSTORE PUSH1 0x20 ADD PUSH1 0x3 DUP3 ADD DUP1 SLOAD PUSH2 0xE89 SWAP1 PUSH2 0x22A4 JUMP JUMPDEST DUP1 PUSH1 0x1F ADD PUSH1 0x20 DUP1 SWAP2 DIV MUL PUSH1 0x20 ADD PUSH1 0x40 MLOAD SWAP1 DUP2 ADD PUSH1 0x40 MSTORE DUP1 SWAP3 SWAP2 SWAP1 DUP2 DUP2 MSTORE PUSH1 0x20 ADD DUP3 DUP1 SLOAD PUSH2 0xEB5 SWAP1 PUSH2 0x22A4 JUMP JUMPDEST DUP1 ISZERO PUSH2 0xF02 JUMPI DUP1 PUSH1 0x1F LT PUSH2 0xED7 JUMPI PUSH2 0x100 DUP1 DUP4 SLOAD DIV MUL DUP4 MSTORE SWAP2 PUSH1 0x20 ADD SWAP2 PUSH2 0xF02 JUMP JUMPDEST DUP3 ADD SWAP2 SWAP1 PUSH1 0x0 MSTORE PUSH1 0x20 PUSH1 0x0 KECCAK256 SWAP1 JUMPDEST DUP2 SLOAD DUP2 MSTORE SWAP1 PUSH1 0x1 ADD SWAP1 PUSH1 0x20 ADD DUP1 DUP4 GT PUSH2 0xEE5 JUMPI DUP3 SWAP1 SUB PUSH1 0x1F AND DUP3 ADD SWAP2 JUMPDEST POP POP POP POP POP DUP2 MSTORE PUSH1 0x20 ADD PUSH1 0x4 DUP3 ADD DUP1 SLOAD PUSH2 0xF1B SWAP1 PUSH2 0x22A4 JUMP JUMPDEST DUP1 PUSH1 0x1F ADD PUSH1 0x20 DUP1 SWAP2 DIV MUL PUSH1 0x20 ADD PUSH1 0x40 MLOAD SWAP1 DUP2 ADD PUSH1 0x40 MSTORE DUP1 SWAP3 SWAP2 SWAP1 DUP2 DUP2 MSTORE PUSH1 0x20 ADD DUP3 DUP1 SLOAD PUSH2 0xF47 SWAP1 PUSH2 0x22A4 JUMP JUMPDEST DUP1 ISZERO PUSH2 0xF94 JUMPI DUP1 PUSH1 0x1F LT PUSH2 0xF69 JUMPI PUSH2 0x100 DUP1 DUP4 SLOAD DIV MUL DUP4 MSTORE SWAP2 PUSH1 0x20 ADD SWAP2 PUSH2 0xF94 JUMP JUMPDEST DUP3 ADD SWAP2 SWAP1 PUSH1 0x0 MSTORE PUSH1 0x20 PUSH1 0x0 KECCAK256 SWAP1 JUMPDEST DUP2 SLOAD DUP2 MSTORE SWAP1 PUSH1 0x1 ADD SWAP1 PUSH1 0x20 ADD DUP1 DUP4 GT PUSH2 0xF77 JUMPI DUP3 SWAP1 SUB PUSH1 0x1F AND DUP3 ADD SWAP2 JUMPDEST POP POP POP SWAP2 DUP4 MSTORE POP POP PUSH1 0x5 DUP3 ADD SLOAD PUSH1 0x20 SWAP1 SWAP2 ADD SWAP1 PUSH1 0xFF AND PUSH1 0x2 DUP2 GT ISZERO PUSH2 0xFBB JUMPI PUSH2 0xFBB PUSH2 0x1A15 JUMP JUMPDEST PUSH1 0x2 DUP2 GT ISZERO PUSH2 0xFCC JUMPI PUSH2 0xFCC PUSH2 0x1A15 JUMP JUMPDEST DUP2 MSTORE PUSH1 0x20 ADD PUSH1 0x6 DUP3 ADD DUP1 SLOAD PUSH2 0xFE0 SWAP1 PUSH2 0x22A4 JUMP JUMPDEST DUP1 PUSH1 0x1F ADD PUSH1 0x20 DUP1 SWAP2 DIV MUL PUSH1 0x20 ADD PUSH1 0x40 MLOAD SWAP1 DUP2 ADD PUSH1 0x40 MSTORE DUP1 SWAP3 SWAP2 SWAP1 DUP2 DUP2 MSTORE PUSH1 0x20 ADD DUP3 DUP1 SLOAD PUSH2 0x100C SWAP1 PUSH2 0x22A4 JUMP JUMPDEST DUP1 ISZERO PUSH2 0x1059 JUMPI DUP1 PUSH1 0x1F LT PUSH2 0x102E JUMPI PUSH2 0x100 DUP1 DUP4 SLOAD DIV MUL DUP4 MSTORE SWAP2 PUSH1 0x20 ADD SWAP2 PUSH2 0x1059 JUMP JUMPDEST DUP3 ADD SWAP2 SWAP1 PUSH1 0x0 MSTORE PUSH1 0x20 PUSH1 0x0 KECCAK256 SWAP1 JUMPDEST DUP2 SLOAD DUP2 MSTORE SWAP1 PUSH1 0x1 ADD SWAP1 PUSH1 0x20 ADD DUP1 DUP4 GT PUSH2 0x103C JUMPI DUP3 SWAP1 SUB PUSH1 0x1F AND DUP3 ADD SWAP2 JUMPDEST POP POP POP SWAP2 DUP4 MSTORE POP POP PUSH1 0x7 DUP3 ADD SLOAD PUSH1 0xFF DUP1 DUP3 AND PUSH1 0x20 DUP5 ADD MSTORE PUSH2 0x100 SWAP1 SWAP2 DIV AND PUSH1 0x40 DUP3 ADD MSTORE PUSH1 0x8 DUP3 ADD SLOAD PUSH1 0x60 DUP3 ADD MSTORE PUSH1 0x9 SWAP1 SWAP2 ADD SLOAD PUSH1 0x80 SWAP1 SWAP2 ADD MSTORE SWAP4 SWAP3 POP POP POP JUMP JUMPDEST PUSH1 0x0 DUP2 DUP2 MSTORE PUSH1 0x5 PUSH1 0x20 SWAP1 DUP2 MSTORE PUSH1 0x40 DUP1 DUP4 KECCAK256 PUSH1 0x8 ADD SLOAD PUSH1 0x6 SWAP1 SWAP3 MSTORE DUP3 KECCAK256 SLOAD DUP1 ISZERO PUSH2 0x10CE JUMPI PUSH2 0x10C6 DUP2 DUP4 PUSH2 0x2468 JUMP JUMPDEST SWAP5 SWAP4 POP POP POP POP JUMP JUMPDEST POP PUSH1 0x0 SWAP4 SWAP3 POP POP POP JUMP JUMPDEST PUSH1 0x0 DUP3 DUP2 MSTORE PUSH1 0x9 PUSH1 0x20 MSTORE PUSH1 0x40 DUP2 KECCAK256 PUSH1 0x1 ADD SLOAD SWAP1 SUB PUSH2 0x112D JUMPI PUSH1 0x40 MLOAD PUSH3 0x461BCD PUSH1 0xE5 SHL DUP2 MSTORE PUSH1 0x20 PUSH1 0x4 DUP3 ADD MSTORE PUSH1 0x12 PUSH1 0x24 DUP3 ADD MSTORE PUSH18 0x129BD888191BD95CC81B9BDD08195E1A5CDD PUSH1 0x72 SHL PUSH1 0x44 DUP3 ADD MSTORE PUSH1 0x64 ADD PUSH2 0x2A7 JUMP JUMPDEST PUSH1 0x0 DUP2 PUSH1 0xFF AND GT DUP1 ISZERO PUSH2 0x1144 JUMPI POP PUSH1 0x5 DUP2 PUSH1 0xFF AND GT ISZERO JUMPDEST PUSH2 0x1181 JUMPI PUSH1 0x40 MLOAD PUSH3 0x461BCD PUSH1 0xE5 SHL DUP2 MSTORE PUSH1 0x20 PUSH1 0x4 DUP3 ADD MSTORE PUSH1 0xE PUSH1 0x24 DUP3 ADD MSTORE PUSH14 0x496E76616C696420726174696E67 PUSH1 0x90 SHL PUSH1 0x44 DUP3 ADD MSTORE PUSH1 0x64 ADD PUSH2 0x2A7 JUMP JUMPDEST PUSH1 0x0 DUP3 DUP2 MSTORE PUSH1 0x9 PUSH1 0x20 MSTORE PUSH1 0x40 DUP2 KECCAK256 PUSH1 0x6 ADD DUP1 SLOAD PUSH1 0xFF DUP5 AND SWAP3 SWAP1 PUSH2 0x11A5 SWAP1 DUP5 SWAP1 PUSH2 0x23E7 JUMP JUMPDEST SWAP1 SWAP2 SSTORE POP POP PUSH1 0x0 DUP3 DUP2 MSTORE PUSH1 0x9 PUSH1 0x20 MSTORE PUSH1 0x40 DUP2 KECCAK256 PUSH1 0x7 ADD DUP1 SLOAD SWAP2 PUSH2 0x11C7 DUP4 PUSH2 0x228B JUMP JUMPDEST SWAP2 SWAP1 POP SSTORE POP POP POP JUMP JUMPDEST DUP2 PUSH1 0x0 DUP2 GT DUP1 ISZERO PUSH2 0x11E2 JUMPI POP PUSH1 0x3 SLOAD DUP2 LT JUMPDEST PUSH2 0x11FE JUMPI PUSH1 0x40 MLOAD PUSH3 0x461BCD PUSH1 0xE5 SHL DUP2 MSTORE PUSH1 0x4 ADD PUSH2 0x2A7 SWAP1 PUSH2 0x224C JUMP JUMPDEST PUSH1 0x0 DUP3 GT DUP1 ISZERO PUSH2 0x120F JUMPI POP PUSH1 0x5 DUP3 GT ISZERO JUMPDEST PUSH2 0x124C JUMPI PUSH1 0x40 MLOAD PUSH3 0x461BCD PUSH1 0xE5 SHL DUP2 MSTORE PUSH1 0x20 PUSH1 0x4 DUP3 ADD MSTORE PUSH1 0xE PUSH1 0x24 DUP3 ADD MSTORE PUSH14 0x496E76616C696420726174696E67 PUSH1 0x90 SHL PUSH1 0x44 DUP3 ADD MSTORE PUSH1 0x64 ADD PUSH2 0x2A7 JUMP JUMPDEST PUSH1 0x0 DUP4 DUP2 MSTORE PUSH1 0x5 PUSH1 0x20 MSTORE PUSH1 0x40 DUP2 KECCAK256 PUSH1 0x8 ADD DUP1 SLOAD DUP5 SWAP3 SWAP1 PUSH2 0x126D SWAP1 DUP5 SWAP1 PUSH2 0x23E7 JUMP JUMPDEST SWAP1 SWAP2 SSTORE POP POP POP POP POP JUMP JUMPDEST PUSH1 0x0 DUP3 DUP2 MSTORE PUSH1 0x9 PUSH1 0x20 MSTORE PUSH1 0x40 SWAP1 KECCAK256 SLOAD DUP3 SWAP1 PUSH1 0x1 PUSH1 0x1 PUSH1 0xA0 SHL SUB AND CALLER EQ PUSH2 0x12AF JUMPI PUSH1 0x40 MLOAD PUSH3 0x461BCD PUSH1 0xE5 SHL DUP2 MSTORE PUSH1 0x4 ADD PUSH2 0x2A7 SWAP1 PUSH2 0x2431 JUMP JUMPDEST PUSH1 0x0 DUP4 DUP2 MSTORE PUSH1 0xA PUSH1 0x20 SWAP1 DUP2 MSTORE PUSH1 0x40 DUP1 DUP4 KECCAK256 DUP2 MLOAD DUP1 DUP5 ADD SWAP1 SWAP3 MSTORE DUP6 DUP3 MSTORE DUP1 SLOAD PUSH1 0x1 DUP2 ADD DUP3 SSTORE SWAP1 DUP5 MSTORE SWAP2 SWAP1 SWAP3 KECCAK256 DUP3 MLOAD SWAP2 ADD SWAP1 DUP2 SWAP1 PUSH2 0x12EB SWAP1 DUP3 PUSH2 0x2327 JUMP JUMPDEST POP POP POP CALLER PUSH1 0x1 PUSH1 0x1 PUSH1 0xA0 SHL SUB AND PUSH32 0x637E27F17A25FB1B5A05BC443C24A185895ADD717297BE545DCA2896B20789E5 DUP4 PUSH1 0x40 MLOAD PUSH2 0x1327 SWAP2 SWAP1 PUSH2 0x248A JUMP JUMPDEST PUSH1 0x40 MLOAD DUP1 SWAP2 SUB SWAP1 LOG2 POP POP POP JUMP JUMPDEST PUSH1 0x0 DUP5 DUP2 MSTORE PUSH1 0x5 PUSH1 0x20 MSTORE PUSH1 0x40 SWAP1 KECCAK256 PUSH1 0x1 ADD SLOAD DUP5 SWAP1 PUSH1 0x1 PUSH1 0x1 PUSH1 0xA0 SHL SUB AND CALLER EQ PUSH2 0x136F JUMPI PUSH1 0x40 MLOAD PUSH3 0x461BCD PUSH1 0xE5 SHL DUP2 MSTORE PUSH1 0x4 ADD PUSH2 0x2A7 SWAP1 PUSH2 0x23FA JUMP JUMPDEST PUSH1 0x0 DUP6 DUP2 MSTORE PUSH1 0x7 PUSH1 0x20 SWAP1 DUP2 MSTORE PUSH1 0x40 DUP1 DUP4 KECCAK256 DUP2 MLOAD PUSH1 0x60 DUP2 ADD DUP4 MSTORE DUP9 DUP2 MSTORE DUP1 DUP5 ADD DUP9 SWAP1 MSTORE PUSH1 0xFF DUP8 AND SWAP3 DUP2 ADD SWAP3 SWAP1 SWAP3 MSTORE DUP1 SLOAD PUSH1 0x1 DUP2 ADD DUP3 SSTORE SWAP1 DUP5 MSTORE SWAP2 SWAP1 SWAP3 KECCAK256 DUP3 MLOAD PUSH1 0x3 SWAP1 SWAP3 MUL ADD SWAP1 DUP2 SWAP1 PUSH2 0x13C0 SWAP1 DUP3 PUSH2 0x2327 JUMP JUMPDEST POP PUSH1 0x20 DUP3 ADD MLOAD PUSH1 0x1 DUP3 ADD SWAP1 PUSH2 0x13D5 SWAP1 DUP3 PUSH2 0x2327 JUMP JUMPDEST POP PUSH1 0x40 SWAP2 DUP3 ADD MLOAD PUSH1 0x2 SWAP2 SWAP1 SWAP2 ADD DUP1 SLOAD PUSH1 0xFF NOT AND PUSH1 0xFF SWAP1 SWAP3 AND SWAP2 SWAP1 SWAP2 OR SWAP1 SSTORE MLOAD DUP6 SWAP1 PUSH32 0x157A617A993F737765709B2BCA2E78B82E9502D1538263E9A5617F0842074F36 SWAP1 PUSH1 0x0 SWAP1 LOG2 POP POP POP POP POP JUMP JUMPDEST PUSH1 0x0 PUSH1 0x1 PUSH1 0x0 DUP2 SLOAD PUSH2 0x1434 SWAP1 PUSH2 0x228B JUMP JUMPDEST SWAP2 SWAP1 POP DUP2 SWAP1 SSTORE SWAP1 POP PUSH1 0x0 PUSH1 0x40 MLOAD DUP1 PUSH2 0x140 ADD PUSH1 0x40 MSTORE DUP1 CALLER PUSH1 0x1 PUSH1 0x1 PUSH1 0xA0 SHL SUB AND DUP2 MSTORE PUSH1 0x20 ADD DUP4 DUP2 MSTORE PUSH1 0x20 ADD DUP14 DUP2 MSTORE PUSH1 0x20 ADD DUP13 DUP2 MSTORE PUSH1 0x20 ADD DUP12 DUP2 MSTORE PUSH1 0x20 ADD DUP7 PUSH1 0x2 DUP2 GT ISZERO PUSH2 0x1483 JUMPI PUSH2 0x1483 PUSH2 0x1A15 JUMP JUMPDEST DUP2 MSTORE PUSH1 0xFF DUP7 AND PUSH1 0x20 DUP1 DUP4 ADD SWAP2 SWAP1 SWAP2 MSTORE PUSH1 0x0 PUSH1 0x40 DUP1 DUP5 ADD DUP3 SWAP1 MSTORE PUSH1 0x60 DUP5 ADD DUP3 SWAP1 MSTORE PUSH1 0x80 SWAP1 SWAP4 ADD DUP2 SWAP1 MSTORE DUP6 DUP2 MSTORE PUSH1 0x9 DUP3 MSTORE DUP3 SWAP1 KECCAK256 DUP4 MLOAD DUP2 SLOAD PUSH1 0x1 PUSH1 0x1 PUSH1 0xA0 SHL SUB NOT AND PUSH1 0x1 PUSH1 0x1 PUSH1 0xA0 SHL SUB SWAP1 SWAP2 AND OR DUP2 SSTORE SWAP1 DUP4 ADD MLOAD PUSH1 0x1 DUP3 ADD SSTORE SWAP1 DUP3 ADD MLOAD SWAP2 SWAP3 POP DUP3 SWAP2 PUSH1 0x2 DUP3 ADD SWAP1 PUSH2 0x14F2 SWAP1 DUP3 PUSH2 0x2327 JUMP JUMPDEST POP PUSH1 0x60 DUP3 ADD MLOAD PUSH1 0x3 DUP3 ADD SWAP1 PUSH2 0x1507 SWAP1 DUP3 PUSH2 0x2327 JUMP JUMPDEST POP PUSH1 0x80 DUP3 ADD MLOAD PUSH1 0x4 DUP3 ADD SSTORE PUSH1 0xA0 DUP3 ADD MLOAD PUSH1 0x5 DUP3 ADD DUP1 SLOAD PUSH1 0xFF NOT AND PUSH1 0x1 DUP4 PUSH1 0x2 DUP2 GT ISZERO PUSH2 0x1535 JUMPI PUSH2 0x1535 PUSH2 0x1A15 JUMP JUMPDEST MUL OR SWAP1 SSTORE POP PUSH1 0xC0 DUP3 ADD MLOAD PUSH1 0x5 DUP3 ADD DUP1 SLOAD PUSH2 0xFF00 NOT AND PUSH2 0x100 PUSH1 0xFF SWAP1 SWAP4 AND DUP4 MUL OR SWAP1 SSTORE PUSH1 0xE0 DUP4 ADD MLOAD PUSH1 0x6 DUP4 ADD SSTORE DUP3 ADD MLOAD PUSH1 0x7 DUP3 ADD SSTORE PUSH2 0x120 SWAP1 SWAP2 ADD MLOAD PUSH1 0x8 SWAP1 SWAP2 ADD DUP1 SLOAD PUSH1 0xFF NOT AND SWAP2 ISZERO ISZERO SWAP2 SWAP1 SWAP2 OR SWAP1 SSTORE PUSH2 0x1592 DUP3 DUP11 DUP11 DUP11 DUP11 DUP9 PUSH2 0x1871 JUMP JUMPDEST CALLER PUSH1 0x1 PUSH1 0x1 PUSH1 0xA0 SHL SUB AND DUP3 PUSH32 0xDB8D293A7B6910D3B1E68123251716E6334B263EA99C11F208867FD0DD552340 DUP15 PUSH1 0x40 MLOAD PUSH2 0x15CC SWAP2 SWAP1 PUSH2 0x248A JUMP JUMPDEST PUSH1 0x40 MLOAD DUP1 SWAP2 SUB SWAP1 LOG3 PUSH1 0x4 DUP1 SLOAD SWAP1 PUSH1 0x0 PUSH2 0x15E4 DUP4 PUSH2 0x228B JUMP JUMPDEST SWAP2 SWAP1 POP SSTORE POP POP POP POP POP POP POP POP POP POP POP POP POP JUMP JUMPDEST PUSH1 0x0 DUP4 DUP2 MSTORE PUSH1 0x5 PUSH1 0x20 MSTORE PUSH1 0x40 SWAP1 KECCAK256 PUSH1 0x1 ADD SLOAD DUP4 SWAP1 PUSH1 0x1 PUSH1 0x1 PUSH1 0xA0 SHL SUB AND CALLER EQ PUSH2 0x1632 JUMPI PUSH1 0x40 MLOAD PUSH3 0x461BCD PUSH1 0xE5 SHL DUP2 MSTORE PUSH1 0x4 ADD PUSH2 0x2A7 SWAP1 PUSH2 0x23FA JUMP JUMPDEST PUSH1 0x0 DUP5 DUP2 MSTORE PUSH1 0x8 PUSH1 0x20 SWAP1 DUP2 MSTORE PUSH1 0x40 DUP1 DUP4 KECCAK256 DUP2 MLOAD DUP1 DUP4 ADD SWAP1 SWAP3 MSTORE DUP7 DUP3 MSTORE PUSH1 0xFF DUP7 AND DUP3 DUP5 ADD MSTORE DUP1 SLOAD PUSH1 0x1 DUP2 ADD DUP3 SSTORE SWAP1 DUP5 MSTORE SWAP2 SWAP1 SWAP3 KECCAK256 DUP3 MLOAD PUSH1 0x2 SWAP1 SWAP3 MUL ADD SWAP1 DUP2 SWAP1 PUSH2 0x167A SWAP1 DUP3 PUSH2 0x2327 JUMP JUMPDEST POP PUSH1 0x20 SWAP2 SWAP1 SWAP2 ADD MLOAD PUSH1 0x1 SWAP1 SWAP2 ADD DUP1 SLOAD PUSH1 0xFF NOT AND PUSH1 0xFF SWAP1 SWAP3 AND SWAP2 SWAP1 SWAP2 OR SWAP1 SSTORE PUSH1 0x40 MLOAD CALLER SWAP1 PUSH32 0x637E27F17A25FB1B5A05BC443C24A185895ADD717297BE545DCA2896B20789E5 SWAP1 PUSH2 0x16CA SWAP1 DUP7 SWAP1 PUSH2 0x248A JUMP JUMPDEST PUSH1 0x40 MLOAD DUP1 SWAP2 SUB SWAP1 LOG2 POP POP POP POP JUMP JUMPDEST PUSH1 0x0 DUP2 DUP2 MSTORE PUSH1 0x9 PUSH1 0x20 MSTORE PUSH1 0x40 SWAP1 KECCAK256 SLOAD DUP2 SWAP1 PUSH1 0x1 PUSH1 0x1 PUSH1 0xA0 SHL SUB AND CALLER EQ PUSH2 0x1710 JUMPI PUSH1 0x40 MLOAD PUSH3 0x461BCD PUSH1 0xE5 SHL DUP2 MSTORE PUSH1 0x4 ADD PUSH2 0x2A7 SWAP1 PUSH2 0x2431 JUMP JUMPDEST PUSH1 0x0 DUP3 DUP2 MSTORE PUSH1 0xA PUSH1 0x20 MSTORE PUSH1 0x40 SWAP1 KECCAK256 SLOAD PUSH2 0x1791 JUMPI PUSH1 0x40 MLOAD PUSH3 0x461BCD PUSH1 0xE5 SHL DUP2 MSTORE PUSH1 0x20 PUSH1 0x4 DUP3 ADD MSTORE PUSH1 0x37 PUSH1 0x24 DUP3 ADD MSTORE PUSH32 0x5265717569726564207465636873206D75737420626520737065636966696564 PUSH1 0x44 DUP3 ADD MSTORE PUSH32 0x206265666F726520706F7374696E6720746865206A6F62000000000000000000 PUSH1 0x64 DUP3 ADD MSTORE PUSH1 0x84 ADD PUSH2 0x2A7 JUMP JUMPDEST POP PUSH1 0x0 SWAP1 DUP2 MSTORE PUSH1 0x9 PUSH1 0x20 MSTORE PUSH1 0x40 SWAP1 KECCAK256 PUSH1 0x8 ADD DUP1 SLOAD PUSH1 0xFF NOT AND PUSH1 0x1 OR SWAP1 SSTORE JUMP JUMPDEST PUSH1 0x0 DUP2 DUP2 MSTORE PUSH1 0x9 PUSH1 0x20 MSTORE PUSH1 0x40 DUP2 KECCAK256 PUSH1 0x7 ADD SLOAD ISZERO PUSH2 0x17F0 JUMPI PUSH1 0x0 DUP3 DUP2 MSTORE PUSH1 0x9 PUSH1 0x20 MSTORE PUSH1 0x40 SWAP1 KECCAK256 PUSH1 0x7 DUP2 ADD SLOAD PUSH1 0x6 SWAP1 SWAP2 ADD SLOAD PUSH2 0x17EA SWAP2 SWAP1 PUSH2 0x2468 JUMP JUMPDEST SWAP3 SWAP2 POP POP JUMP JUMPDEST POP PUSH1 0x0 SWAP2 SWAP1 POP JUMP JUMPDEST SWAP2 SWAP1 POP JUMP JUMPDEST PUSH1 0x0 DUP3 DUP2 MSTORE PUSH1 0x9 PUSH1 0x20 MSTORE PUSH1 0x40 SWAP1 KECCAK256 SLOAD DUP3 SWAP1 PUSH1 0x1 PUSH1 0x1 PUSH1 0xA0 SHL SUB AND CALLER EQ PUSH2 0x1835 JUMPI PUSH1 0x40 MLOAD PUSH3 0x461BCD PUSH1 0xE5 SHL DUP2 MSTORE PUSH1 0x4 ADD PUSH2 0x2A7 SWAP1 PUSH2 0x2431 JUMP JUMPDEST PUSH1 0x0 DUP4 DUP2 MSTORE PUSH1 0xB PUSH1 0x20 SWAP1 DUP2 MSTORE PUSH1 0x40 DUP1 DUP4 KECCAK256 DUP2 MLOAD DUP1 DUP5 ADD SWAP1 SWAP3 MSTORE DUP6 DUP3 MSTORE DUP1 SLOAD PUSH1 0x1 DUP2 ADD DUP3 SSTORE SWAP1 DUP5 MSTORE SWAP2 SWAP1 SWAP3 KECCAK256 DUP3 MLOAD SWAP2 ADD SWAP1 DUP2 SWAP1 PUSH2 0x12EB SWAP1 DUP3 PUSH2 0x2327 JUMP JUMPDEST PUSH1 0x40 DUP1 MLOAD PUSH1 0xA0 DUP2 ADD DUP3 MSTORE DUP7 DUP2 MSTORE PUSH1 0x20 DUP1 DUP3 ADD DUP8 SWAP1 MSTORE DUP2 DUP4 ADD DUP7 SWAP1 MSTORE PUSH1 0x60 DUP3 ADD DUP6 SWAP1 MSTORE PUSH1 0x80 DUP3 ADD DUP5 SWAP1 MSTORE PUSH1 0x0 DUP10 DUP2 MSTORE PUSH1 0xD SWAP1 SWAP2 MSTORE SWAP2 SWAP1 SWAP2 KECCAK256 DUP2 MLOAD DUP2 SWAP1 PUSH2 0x18B6 SWAP1 DUP3 PUSH2 0x2327 JUMP JUMPDEST POP PUSH1 0x20 DUP3 ADD MLOAD PUSH1 0x1 DUP3 ADD SWAP1 PUSH2 0x18CB SWAP1 DUP3 PUSH2 0x2327 JUMP JUMPDEST POP PUSH1 0x40 DUP3 ADD MLOAD PUSH1 0x2 DUP3 ADD SWAP1 PUSH2 0x18E0 SWAP1 DUP3 PUSH2 0x2327 JUMP JUMPDEST POP PUSH1 0x60 DUP3 ADD MLOAD PUSH1 0x3 DUP3 ADD SWAP1 PUSH2 0x18F5 SWAP1 DUP3 PUSH2 0x2327 JUMP JUMPDEST POP PUSH1 0x80 DUP3 ADD MLOAD PUSH1 0x4 DUP3 ADD SWAP1 PUSH2 0x190A SWAP1 DUP3 PUSH2 0x2327 JUMP JUMPDEST POP POP POP POP POP POP POP POP POP JUMP JUMPDEST PUSH1 0x40 MLOAD DUP1 PUSH2 0x140 ADD PUSH1 0x40 MSTORE DUP1 PUSH1 0x0 PUSH1 0x1 PUSH1 0x1 PUSH1 0xA0 SHL SUB AND DUP2 MSTORE PUSH1 0x20 ADD PUSH1 0x0 DUP2 MSTORE PUSH1 0x20 ADD PUSH1 0x60 DUP2 MSTORE PUSH1 0x20 ADD PUSH1 0x60 DUP2 MSTORE PUSH1 0x20 ADD PUSH1 0x0 DUP2 MSTORE PUSH1 0x20 ADD PUSH1 0x0 PUSH1 0x2 DUP2 GT ISZERO PUSH2 0x1960 JUMPI PUSH2 0x1960 PUSH2 0x1A15 JUMP JUMPDEST DUP2 MSTORE PUSH1 0x0 PUSH1 0x20 DUP3 ADD DUP2 SWAP1 MSTORE PUSH1 0x40 DUP3 ADD DUP2 SWAP1 MSTORE PUSH1 0x60 DUP3 ADD DUP2 SWAP1 MSTORE PUSH1 0x80 SWAP1 SWAP2 ADD MSTORE SWAP1 JUMP JUMPDEST PUSH1 0x40 MLOAD DUP1 PUSH2 0x160 ADD PUSH1 0x40 MSTORE DUP1 PUSH1 0x0 DUP2 MSTORE PUSH1 0x20 ADD PUSH1 0x0 PUSH1 0x1 PUSH1 0x1 PUSH1 0xA0 SHL SUB AND DUP2 MSTORE PUSH1 0x20 ADD PUSH1 0x60 DUP2 MSTORE PUSH1 0x20 ADD PUSH1 0x60 DUP2 MSTORE PUSH1 0x20 ADD PUSH1 0x60 DUP2 MSTORE PUSH1 0x20 ADD PUSH1 0x0 PUSH1 0x2 DUP2 GT ISZERO PUSH2 0x19CD JUMPI PUSH2 0x19CD PUSH2 0x1A15 JUMP JUMPDEST DUP2 MSTORE PUSH1 0x20 ADD PUSH1 0x60 DUP2 MSTORE PUSH1 0x20 ADD PUSH1 0x0 PUSH1 0xFF AND DUP2 MSTORE PUSH1 0x20 ADD PUSH1 0x0 PUSH1 0xFF AND DUP2 MSTORE PUSH1 0x20 ADD PUSH1 0x0 DUP2 MSTORE PUSH1 0x20 ADD PUSH1 0x0 DUP2 MSTORE POP SWAP1 JUMP JUMPDEST PUSH1 0x0 PUSH1 0x20 DUP3 DUP5 SUB SLT ISZERO PUSH2 0x1A0E JUMPI PUSH1 0x0 DUP1 REVERT JUMPDEST POP CALLDATALOAD SWAP2 SWAP1 POP JUMP JUMPDEST PUSH4 0x4E487B71 PUSH1 0xE0 SHL PUSH1 0x0 MSTORE PUSH1 0x21 PUSH1 0x4 MSTORE PUSH1 0x24 PUSH1 0x0 REVERT JUMPDEST PUSH1 0x3 DUP2 LT PUSH2 0x1A49 JUMPI PUSH4 0x4E487B71 PUSH1 0xE0 SHL PUSH1 0x0 MSTORE PUSH1 0x21 PUSH1 0x4 MSTORE PUSH1 0x24 PUSH1 0x0 REVERT JUMPDEST SWAP1 MSTORE JUMP JUMPDEST PUSH1 0x20 DUP2 ADD PUSH2 0x17EA DUP3 DUP5 PUSH2 0x1A2B JUMP JUMPDEST PUSH4 0x4E487B71 PUSH1 0xE0 SHL PUSH1 0x0 MSTORE PUSH1 0x41 PUSH1 0x4 MSTORE PUSH1 0x24 PUSH1 0x0 REVERT JUMPDEST PUSH1 0x0 DUP3 PUSH1 0x1F DUP4 ADD SLT PUSH2 0x1A82 JUMPI PUSH1 0x0 DUP1 REVERT JUMPDEST DUP2 CALLDATALOAD PUSH8 0xFFFFFFFFFFFFFFFF DUP1 DUP3 GT ISZERO PUSH2 0x1A9D JUMPI PUSH2 0x1A9D PUSH2 0x1A5B JUMP JUMPDEST PUSH1 0x40 MLOAD PUSH1 0x1F DUP4 ADD PUSH1 0x1F NOT SWAP1 DUP2 AND PUSH1 0x3F ADD AND DUP2 ADD SWAP1 DUP3 DUP3 GT DUP2 DUP4 LT OR ISZERO PUSH2 0x1AC5 JUMPI PUSH2 0x1AC5 PUSH2 0x1A5B JUMP JUMPDEST DUP2 PUSH1 0x40 MSTORE DUP4 DUP2 MSTORE DUP7 PUSH1 0x20 DUP6 DUP9 ADD ADD GT ISZERO PUSH2 0x1ADE JUMPI PUSH1 0x0 DUP1 REVERT JUMPDEST DUP4 PUSH1 0x20 DUP8 ADD PUSH1 0x20 DUP4 ADD CALLDATACOPY PUSH1 0x0 PUSH1 0x20 DUP6 DUP4 ADD ADD MSTORE DUP1 SWAP5 POP POP POP POP POP SWAP3 SWAP2 POP POP JUMP JUMPDEST DUP1 CALLDATALOAD PUSH1 0x3 DUP2 LT PUSH2 0x17F8 JUMPI PUSH1 0x0 DUP1 REVERT JUMPDEST DUP1 CALLDATALOAD PUSH1 0xFF DUP2 AND DUP2 EQ PUSH2 0x17F8 JUMPI PUSH1 0x0 DUP1 REVERT JUMPDEST PUSH1 0x0 DUP1 PUSH1 0x0 DUP1 PUSH1 0x0 DUP1 PUSH1 0x0 PUSH1 0xE0 DUP9 DUP11 SUB SLT ISZERO PUSH2 0x1B39 JUMPI PUSH1 0x0 DUP1 REVERT JUMPDEST DUP8 CALLDATALOAD PUSH8 0xFFFFFFFFFFFFFFFF DUP1 DUP3 GT ISZERO PUSH2 0x1B51 JUMPI PUSH1 0x0 DUP1 REVERT JUMPDEST PUSH2 0x1B5D DUP12 DUP4 DUP13 ADD PUSH2 0x1A71 JUMP JUMPDEST SWAP9 POP PUSH1 0x20 DUP11 ADD CALLDATALOAD SWAP2 POP DUP1 DUP3 GT ISZERO PUSH2 0x1B73 JUMPI PUSH1 0x0 DUP1 REVERT JUMPDEST PUSH2 0x1B7F DUP12 DUP4 DUP13 ADD PUSH2 0x1A71 JUMP JUMPDEST SWAP8 POP PUSH1 0x40 DUP11 ADD CALLDATALOAD SWAP2 POP DUP1 DUP3 GT ISZERO PUSH2 0x1B95 JUMPI PUSH1 0x0 DUP1 REVERT JUMPDEST PUSH2 0x1BA1 DUP12 DUP4 DUP13 ADD PUSH2 0x1A71 JUMP JUMPDEST SWAP7 POP PUSH1 0x60 DUP11 ADD CALLDATALOAD SWAP2 POP DUP1 DUP3 GT ISZERO PUSH2 0x1BB7 JUMPI PUSH1 0x0 DUP1 REVERT JUMPDEST POP PUSH2 0x1BC4 DUP11 DUP3 DUP12 ADD PUSH2 0x1A71 JUMP JUMPDEST SWAP5 POP POP PUSH2 0x1BD3 PUSH1 0x80 DUP10 ADD PUSH2 0x1AFE JUMP JUMPDEST SWAP3 POP PUSH2 0x1BE1 PUSH1 0xA0 DUP10 ADD PUSH2 0x1B0D JUMP JUMPDEST SWAP2 POP PUSH2 0x1BEF PUSH1 0xC0 DUP10 ADD PUSH2 0x1B0D JUMP JUMPDEST SWAP1 POP SWAP3 SWAP6 SWAP9 SWAP2 SWAP5 SWAP8 POP SWAP3 SWAP6 POP JUMP JUMPDEST PUSH1 0x0 DUP1 PUSH1 0x0 DUP1 PUSH1 0x0 PUSH1 0xA0 DUP7 DUP9 SUB SLT ISZERO PUSH2 0x1C15 JUMPI PUSH1 0x0 DUP1 REVERT JUMPDEST DUP6 CALLDATALOAD SWAP5 POP PUSH1 0x20 DUP7 ADD CALLDATALOAD PUSH8 0xFFFFFFFFFFFFFFFF DUP1 DUP3 GT ISZERO PUSH2 0x1C34 JUMPI PUSH1 0x0 DUP1 REVERT JUMPDEST PUSH2 0x1C40 DUP10 DUP4 DUP11 ADD PUSH2 0x1A71 JUMP JUMPDEST SWAP6 POP PUSH1 0x40 DUP9 ADD CALLDATALOAD SWAP2 POP DUP1 DUP3 GT ISZERO PUSH2 0x1C56 JUMPI PUSH1 0x0 DUP1 REVERT JUMPDEST POP PUSH2 0x1C63 DUP9 DUP3 DUP10 ADD PUSH2 0x1A71 JUMP JUMPDEST SWAP6 SWAP9 SWAP5 SWAP8 POP SWAP5 SWAP6 PUSH1 0x60 DUP2 ADD CALLDATALOAD SWAP6 POP PUSH1 0x80 ADD CALLDATALOAD SWAP4 SWAP3 POP POP POP JUMP JUMPDEST PUSH1 0x0 DUP2 MLOAD DUP1 DUP5 MSTORE PUSH1 0x0 JUMPDEST DUP2 DUP2 LT ISZERO PUSH2 0x1CA2 JUMPI PUSH1 0x20 DUP2 DUP6 ADD DUP2 ADD MLOAD DUP7 DUP4 ADD DUP3 ADD MSTORE ADD PUSH2 0x1C86 JUMP JUMPDEST POP PUSH1 0x0 PUSH1 0x20 DUP3 DUP7 ADD ADD MSTORE PUSH1 0x20 PUSH1 0x1F NOT PUSH1 0x1F DUP4 ADD AND DUP6 ADD ADD SWAP2 POP POP SWAP3 SWAP2 POP POP JUMP JUMPDEST PUSH1 0x0 DUP2 MLOAD PUSH1 0xA0 DUP5 MSTORE PUSH2 0x1CD7 PUSH1 0xA0 DUP6 ADD DUP3 PUSH2 0x1C7C JUMP JUMPDEST SWAP1 POP PUSH1 0x20 DUP4 ADD MLOAD DUP5 DUP3 SUB PUSH1 0x20 DUP7 ADD MSTORE PUSH2 0x1CF0 DUP3 DUP3 PUSH2 0x1C7C JUMP JUMPDEST SWAP2 POP POP PUSH1 0x40 DUP4 ADD MLOAD DUP5 DUP3 SUB PUSH1 0x40 DUP7 ADD MSTORE PUSH2 0x1D0A DUP3 DUP3 PUSH2 0x1C7C JUMP JUMPDEST SWAP2 POP POP PUSH1 0x60 DUP4 ADD MLOAD DUP5 DUP3 SUB PUSH1 0x60 DUP7 ADD MSTORE PUSH2 0x1D24 DUP3 DUP3 PUSH2 0x1C7C JUMP JUMPDEST SWAP2 POP POP PUSH1 0x80 DUP4 ADD MLOAD DUP5 DUP3 SUB PUSH1 0x80 DUP7 ADD MSTORE PUSH2 0x1D3E DUP3 DUP3 PUSH2 0x1C7C JUMP JUMPDEST SWAP6 SWAP5 POP POP POP POP POP JUMP JUMPDEST PUSH1 0x0 DUP2 MLOAD DUP1 DUP5 MSTORE PUSH1 0x20 DUP1 DUP6 ADD DUP1 DUP2 SWAP7 POP DUP4 PUSH1 0x5 SHL DUP2 ADD SWAP2 POP DUP3 DUP7 ADD PUSH1 0x0 JUMPDEST DUP6 DUP2 LT ISZERO PUSH2 0x1D97 JUMPI DUP3 DUP5 SUB DUP10 MSTORE DUP2 MLOAD MLOAD DUP6 DUP6 MSTORE PUSH2 0x1D84 DUP7 DUP7 ADD DUP3 PUSH2 0x1C7C JUMP JUMPDEST SWAP10 DUP7 ADD SWAP10 SWAP5 POP POP SWAP1 DUP5 ADD SWAP1 PUSH1 0x1 ADD PUSH2 0x1D65 JUMP JUMPDEST POP SWAP2 SWAP8 SWAP7 POP POP POP POP POP POP POP JUMP JUMPDEST PUSH1 0x80 DUP2 MSTORE PUSH2 0x1DBE PUSH1 0x80 DUP3 ADD DUP7 MLOAD PUSH1 0x1 PUSH1 0x1 PUSH1 0xA0 SHL SUB AND SWAP1 MSTORE JUMP JUMPDEST PUSH1 0x20 DUP6 ADD MLOAD PUSH1 0xA0 DUP3 ADD MSTORE PUSH1 0x0 PUSH1 0x40 DUP7 ADD MLOAD PUSH2 0x140 DUP1 PUSH1 0xC0 DUP6 ADD MSTORE PUSH2 0x1DE6 PUSH2 0x1C0 DUP6 ADD DUP4 PUSH2 0x1C7C JUMP JUMPDEST SWAP2 POP PUSH1 0x60 DUP9 ADD MLOAD PUSH1 0x7F NOT DUP6 DUP5 SUB ADD PUSH1 0xE0 DUP7 ADD MSTORE PUSH2 0x1E03 DUP4 DUP3 PUSH2 0x1C7C JUMP JUMPDEST SWAP3 POP POP PUSH1 0x80 DUP9 ADD MLOAD PUSH2 0x100 DUP2 DUP2 DUP8 ADD MSTORE PUSH1 0xA0 DUP11 ADD MLOAD SWAP2 POP PUSH2 0x120 PUSH2 0x1E29 DUP2 DUP9 ADD DUP5 PUSH2 0x1A2B JUMP JUMPDEST PUSH1 0xC0 DUP12 ADD MLOAD PUSH1 0xFF AND SWAP4 DUP8 ADD SWAP4 SWAP1 SWAP4 MSTORE PUSH1 0xE0 DUP11 ADD MLOAD PUSH2 0x160 DUP8 ADD MSTORE DUP10 ADD MLOAD PUSH2 0x180 DUP7 ADD MSTORE POP DUP8 ADD MLOAD ISZERO ISZERO PUSH2 0x1A0 DUP5 ADD MSTORE DUP3 DUP2 SUB PUSH1 0x20 DUP5 ADD MSTORE PUSH2 0x1E6A DUP2 DUP8 PUSH2 0x1CC2 JUMP JUMPDEST SWAP1 POP DUP3 DUP2 SUB PUSH1 0x40 DUP5 ADD MSTORE PUSH2 0x1E7E DUP2 DUP7 PUSH2 0x1D47 JUMP JUMPDEST SWAP1 POP DUP3 DUP2 SUB PUSH1 0x60 DUP5 ADD MSTORE PUSH2 0x1E92 DUP2 DUP6 PUSH2 0x1D47 JUMP JUMPDEST SWAP8 SWAP7 POP POP POP POP POP POP POP JUMP JUMPDEST PUSH1 0x20 DUP2 MSTORE DUP2 MLOAD PUSH1 0x20 DUP3 ADD MSTORE PUSH1 0x0 PUSH1 0x20 DUP4 ADD MLOAD PUSH2 0x1EC4 PUSH1 0x40 DUP5 ADD DUP3 PUSH1 0x1 PUSH1 0x1 PUSH1 0xA0 SHL SUB AND SWAP1 MSTORE JUMP JUMPDEST POP PUSH1 0x40 DUP4 ADD MLOAD PUSH2 0x160 DUP1 PUSH1 0x60 DUP6 ADD MSTORE PUSH2 0x1EE1 PUSH2 0x180 DUP6 ADD DUP4 PUSH2 0x1C7C JUMP JUMPDEST SWAP2 POP PUSH1 0x60 DUP6 ADD MLOAD PUSH1 0x1F NOT DUP1 DUP7 DUP6 SUB ADD PUSH1 0x80 DUP8 ADD MSTORE PUSH2 0x1EFF DUP5 DUP4 PUSH2 0x1C7C JUMP JUMPDEST SWAP4 POP PUSH1 0x80 DUP8 ADD MLOAD SWAP2 POP DUP1 DUP7 DUP6 SUB ADD PUSH1 0xA0 DUP8 ADD MSTORE PUSH2 0x1F1C DUP5 DUP4 PUSH2 0x1C7C JUMP JUMPDEST SWAP4 POP PUSH1 0xA0 DUP8 ADD MLOAD SWAP2 POP PUSH2 0x1F32 PUSH1 0xC0 DUP8 ADD DUP4 PUSH2 0x1A2B JUMP JUMPDEST PUSH1 0xC0 DUP8 ADD MLOAD SWAP2 POP DUP1 DUP7 DUP6 SUB ADD PUSH1 0xE0 DUP8 ADD MSTORE POP PUSH2 0x1F4E DUP4 DUP3 PUSH2 0x1C7C JUMP JUMPDEST SWAP3 POP POP PUSH1 0xE0 DUP6 ADD MLOAD PUSH2 0x100 PUSH2 0x1F67 DUP2 DUP8 ADD DUP4 PUSH1 0xFF AND SWAP1 MSTORE JUMP JUMPDEST DUP7 ADD MLOAD SWAP1 POP PUSH2 0x120 PUSH2 0x1F7D DUP7 DUP3 ADD DUP4 PUSH1 0xFF AND SWAP1 MSTORE JUMP JUMPDEST DUP7 ADD MLOAD PUSH2 0x140 DUP7 DUP2 ADD SWAP2 SWAP1 SWAP2 MSTORE SWAP1 SWAP6 ADD MLOAD SWAP4 ADD SWAP3 SWAP1 SWAP3 MSTORE POP SWAP2 SWAP1 POP JUMP JUMPDEST PUSH1 0x0 DUP1 PUSH1 0x40 DUP4 DUP6 SUB SLT ISZERO PUSH2 0x1FAD JUMPI PUSH1 0x0 DUP1 REVERT JUMPDEST DUP3 CALLDATALOAD SWAP2 POP PUSH2 0x1FBD PUSH1 0x20 DUP5 ADD PUSH2 0x1B0D JUMP JUMPDEST SWAP1 POP SWAP3 POP SWAP3 SWAP1 POP JUMP JUMPDEST PUSH1 0x0 DUP1 PUSH1 0x40 DUP4 DUP6 SUB SLT ISZERO PUSH2 0x1FD9 JUMPI PUSH1 0x0 DUP1 REVERT JUMPDEST POP POP DUP1 CALLDATALOAD SWAP3 PUSH1 0x20 SWAP1 SWAP2 ADD CALLDATALOAD SWAP2 POP JUMP JUMPDEST PUSH1 0x0 DUP1 PUSH1 0x40 DUP4 DUP6 SUB SLT ISZERO PUSH2 0x1FFB JUMPI PUSH1 0x0 DUP1 REVERT JUMPDEST DUP3 CALLDATALOAD SWAP2 POP PUSH1 0x20 DUP4 ADD CALLDATALOAD PUSH8 0xFFFFFFFFFFFFFFFF DUP2 GT ISZERO PUSH2 0x2019 JUMPI PUSH1 0x0 DUP1 REVERT JUMPDEST PUSH2 0x2025 DUP6 DUP3 DUP7 ADD PUSH2 0x1A71 JUMP JUMPDEST SWAP2 POP POP SWAP3 POP SWAP3 SWAP1 POP JUMP JUMPDEST PUSH1 0x0 DUP1 PUSH1 0x0 DUP1 PUSH1 0x80 DUP6 DUP8 SUB SLT ISZERO PUSH2 0x2045 JUMPI PUSH1 0x0 DUP1 REVERT JUMPDEST DUP5 CALLDATALOAD SWAP4 POP PUSH1 0x20 DUP6 ADD CALLDATALOAD PUSH8 0xFFFFFFFFFFFFFFFF DUP1 DUP3 GT ISZERO PUSH2 0x2064 JUMPI PUSH1 0x0 DUP1 REVERT JUMPDEST PUSH2 0x2070 DUP9 DUP4 DUP10 ADD PUSH2 0x1A71 JUMP JUMPDEST SWAP5 POP PUSH1 0x40 DUP8 ADD CALLDATALOAD SWAP2 POP DUP1 DUP3 GT ISZERO PUSH2 0x2086 JUMPI PUSH1 0x0 DUP1 REVERT JUMPDEST POP PUSH2 0x2093 DUP8 DUP3 DUP9 ADD PUSH2 0x1A71 JUMP JUMPDEST SWAP3 POP POP PUSH2 0x20A2 PUSH1 0x60 DUP7 ADD PUSH2 0x1B0D JUMP JUMPDEST SWAP1 POP SWAP3 SWAP6 SWAP2 SWAP5 POP SWAP3 POP JUMP JUMPDEST PUSH1 0x0 DUP1 PUSH1 0x0 DUP1 PUSH1 0x0 DUP1 PUSH1 0x0 DUP1 PUSH1 0x0 DUP1 PUSH2 0x140 DUP12 DUP14 SUB SLT ISZERO PUSH2 0x20CD JUMPI PUSH1 0x0 DUP1 REVERT JUMPDEST DUP11 CALLDATALOAD PUSH8 0xFFFFFFFFFFFFFFFF DUP1 DUP3 GT ISZERO PUSH2 0x20E5 JUMPI PUSH1 0x0 DUP1 REVERT JUMPDEST PUSH2 0x20F1 DUP15 DUP4 DUP16 ADD PUSH2 0x1A71 JUMP JUMPDEST SWAP12 POP PUSH1 0x20 DUP14 ADD CALLDATALOAD SWAP2 POP DUP1 DUP3 GT ISZERO PUSH2 0x2107 JUMPI PUSH1 0x0 DUP1 REVERT JUMPDEST PUSH2 0x2113 DUP15 DUP4 DUP16 ADD PUSH2 0x1A71 JUMP JUMPDEST SWAP11 POP PUSH1 0x40 DUP14 ADD CALLDATALOAD SWAP10 POP PUSH1 0x60 DUP14 ADD CALLDATALOAD SWAP2 POP DUP1 DUP3 GT ISZERO PUSH2 0x2130 JUMPI PUSH1 0x0 DUP1 REVERT JUMPDEST PUSH2 0x213C DUP15 DUP4 DUP16 ADD PUSH2 0x1A71 JUMP JUMPDEST SWAP9 POP PUSH1 0x80 DUP14 ADD CALLDATALOAD SWAP2 POP DUP1 DUP3 GT ISZERO PUSH2 0x2152 JUMPI PUSH1 0x0 DUP1 REVERT JUMPDEST PUSH2 0x215E DUP15 DUP4 DUP16 ADD PUSH2 0x1A71 JUMP JUMPDEST SWAP8 POP PUSH1 0xA0 DUP14 ADD CALLDATALOAD SWAP2 POP DUP1 DUP3 GT ISZERO PUSH2 0x2174 JUMPI PUSH1 0x0 DUP1 REVERT JUMPDEST PUSH2 0x2180 DUP15 DUP4 DUP16 ADD PUSH2 0x1A71 JUMP JUMPDEST SWAP7 POP PUSH1 0xC0 DUP14 ADD CALLDATALOAD SWAP2 POP DUP1 DUP3 GT ISZERO PUSH2 0x2196 JUMPI PUSH1 0x0 DUP1 REVERT JUMPDEST PUSH2 0x21A2 DUP15 DUP4 DUP16 ADD PUSH2 0x1A71 JUMP JUMPDEST SWAP6 POP PUSH2 0x21B0 PUSH1 0xE0 DUP15 ADD PUSH2 0x1AFE JUMP JUMPDEST SWAP5 POP PUSH2 0x21BF PUSH2 0x100 DUP15 ADD PUSH2 0x1B0D JUMP JUMPDEST SWAP4 POP PUSH2 0x120 DUP14 ADD CALLDATALOAD SWAP2 POP DUP1 DUP3 GT ISZERO PUSH2 0x21D6 JUMPI PUSH1 0x0 DUP1 REVERT JUMPDEST POP PUSH2 0x21E3 DUP14 DUP3 DUP15 ADD PUSH2 0x1A71 JUMP JUMPDEST SWAP2 POP POP SWAP3 SWAP6 SWAP9 SWAP12 SWAP2 SWAP5 SWAP8 SWAP11 POP SWAP3 SWAP6 SWAP9 POP JUMP JUMPDEST PUSH1 0x0 DUP1 PUSH1 0x0 PUSH1 0x60 DUP5 DUP7 SUB SLT ISZERO PUSH2 0x220A JUMPI PUSH1 0x0 DUP1 REVERT JUMPDEST DUP4 CALLDATALOAD SWAP3 POP PUSH1 0x20 DUP5 ADD CALLDATALOAD PUSH8 0xFFFFFFFFFFFFFFFF DUP2 GT ISZERO PUSH2 0x2228 JUMPI PUSH1 0x0 DUP1 REVERT JUMPDEST PUSH2 0x2234 DUP7 DUP3 DUP8 ADD PUSH2 0x1A71 JUMP JUMPDEST SWAP3 POP POP PUSH2 0x2243 PUSH1 0x40 DUP6 ADD PUSH2 0x1B0D JUMP JUMPDEST SWAP1 POP SWAP3 POP SWAP3 POP SWAP3 JUMP JUMPDEST PUSH1 0x20 DUP1 DUP3 MSTORE PUSH1 0xF SWAP1 DUP3 ADD MSTORE PUSH15 0x24B73B30B634B2103537B11024B217 PUSH1 0x89 SHL PUSH1 0x40 DUP3 ADD MSTORE PUSH1 0x60 ADD SWAP1 JUMP JUMPDEST PUSH4 0x4E487B71 PUSH1 0xE0 SHL PUSH1 0x0 MSTORE PUSH1 0x11 PUSH1 0x4 MSTORE PUSH1 0x24 PUSH1 0x0 REVERT JUMPDEST PUSH1 0x0 PUSH1 0x1 DUP3 ADD PUSH2 0x229D JUMPI PUSH2 0x229D PUSH2 0x2275 JUMP JUMPDEST POP PUSH1 0x1 ADD SWAP1 JUMP JUMPDEST PUSH1 0x1 DUP2 DUP2 SHR SWAP1 DUP3 AND DUP1 PUSH2 0x22B8 JUMPI PUSH1 0x7F DUP3 AND SWAP2 POP JUMPDEST PUSH1 0x20 DUP3 LT DUP2 SUB PUSH2 0x2C9 JUMPI PUSH4 0x4E487B71 PUSH1 0xE0 SHL PUSH1 0x0 MSTORE PUSH1 0x22 PUSH1 0x4 MSTORE PUSH1 0x24 PUSH1 0x0 REVERT JUMPDEST PUSH1 0x1F DUP3 GT ISZERO PUSH2 0x2322 JUMPI PUSH1 0x0 DUP2 DUP2 MSTORE PUSH1 0x20 DUP2 KECCAK256 PUSH1 0x1F DUP6 ADD PUSH1 0x5 SHR DUP2 ADD PUSH1 0x20 DUP7 LT ISZERO PUSH2 0x22FF JUMPI POP DUP1 JUMPDEST PUSH1 0x1F DUP6 ADD PUSH1 0x5 SHR DUP3 ADD SWAP2 POP JUMPDEST DUP2 DUP2 LT ISZERO PUSH2 0x231E JUMPI DUP3 DUP2 SSTORE PUSH1 0x1 ADD PUSH2 0x230B JUMP JUMPDEST POP POP POP JUMPDEST POP POP POP JUMP JUMPDEST DUP2 MLOAD PUSH8 0xFFFFFFFFFFFFFFFF DUP2 GT ISZERO PUSH2 0x2341 JUMPI PUSH2 0x2341 PUSH2 0x1A5B JUMP JUMPDEST PUSH2 0x2355 DUP2 PUSH2 0x234F DUP5 SLOAD PUSH2 0x22A4 JUMP JUMPDEST DUP5 PUSH2 0x22D8 JUMP JUMPDEST PUSH1 0x20 DUP1 PUSH1 0x1F DUP4 GT PUSH1 0x1 DUP2 EQ PUSH2 0x238A JUMPI PUSH1 0x0 DUP5 ISZERO PUSH2 0x2372 JUMPI POP DUP6 DUP4 ADD MLOAD JUMPDEST PUSH1 0x0 NOT PUSH1 0x3 DUP7 SWAP1 SHL SHR NOT AND PUSH1 0x1 DUP6 SWAP1 SHL OR DUP6 SSTORE PUSH2 0x231E JUMP JUMPDEST PUSH1 0x0 DUP6 DUP2 MSTORE PUSH1 0x20 DUP2 KECCAK256 PUSH1 0x1F NOT DUP7 AND SWAP2 JUMPDEST DUP3 DUP2 LT ISZERO PUSH2 0x23B9 JUMPI DUP9 DUP7 ADD MLOAD DUP3 SSTORE SWAP5 DUP5 ADD SWAP5 PUSH1 0x1 SWAP1 SWAP2 ADD SWAP1 DUP5 ADD PUSH2 0x239A JUMP JUMPDEST POP DUP6 DUP3 LT ISZERO PUSH2 0x23D7 JUMPI DUP8 DUP6 ADD MLOAD PUSH1 0x0 NOT PUSH1 0x3 DUP9 SWAP1 SHL PUSH1 0xF8 AND SHR NOT AND DUP2 SSTORE JUMPDEST POP POP POP POP POP PUSH1 0x1 SWAP1 DUP2 SHL ADD SWAP1 SSTORE POP JUMP JUMPDEST DUP1 DUP3 ADD DUP1 DUP3 GT ISZERO PUSH2 0x17EA JUMPI PUSH2 0x17EA PUSH2 0x2275 JUMP JUMPDEST PUSH1 0x20 DUP1 DUP3 MSTORE PUSH1 0x1D SWAP1 DUP3 ADD MSTORE PUSH32 0x596F752063616E2774206D6F6469667920666F7220746869732049642E000000 PUSH1 0x40 DUP3 ADD MSTORE PUSH1 0x60 ADD SWAP1 JUMP JUMPDEST PUSH1 0x20 DUP1 DUP3 MSTORE PUSH1 0x1A SWAP1 DUP3 ADD MSTORE PUSH32 0x4F6E6C79206A6F62206F776E65722063616E206D6F646966792E000000000000 PUSH1 0x40 DUP3 ADD MSTORE PUSH1 0x60 ADD SWAP1 JUMP JUMPDEST PUSH1 0x0 DUP3 PUSH2 0x2485 JUMPI PUSH4 0x4E487B71 PUSH1 0xE0 SHL PUSH1 0x0 MSTORE PUSH1 0x12 PUSH1 0x4 MSTORE PUSH1 0x24 PUSH1 0x0 REVERT JUMPDEST POP DIV SWAP1 JUMP JUMPDEST PUSH1 0x20 DUP2 MSTORE PUSH1 0x0 PUSH2 0x249D PUSH1 0x20 DUP4 ADD DUP5 PUSH2 0x1C7C JUMP JUMPDEST SWAP4 SWAP3 POP POP POP JUMP INVALID LOG2 PUSH5 0x6970667358 0x22 SLT KECCAK256 GASPRICE PUSH10 0xAA47EC3ED90BD4FC5767 PUSH8 0x7DCCBCED8BF6D6F7 0x4F 0xB1 SWAP12 0xB0 0x1F CALLDATASIZE SUB SWAP14 GASLIMIT 0xC9 PUSH19 0x64736F6C634300081200330000000000000000 "
		},
		"gasEstimates": {
			"creation": {
				"codeDepositCost": "1886800",
				"executionCost": "46255",
				"totalCost": "1933055"
			},
			"external": {
				"add_experiance(uint256,string,string,uint8)": "infinite",
				"add_good_to_have_tech(uint256,string)": "infinite",
				"add_new_job(string,string,uint256,string,string,string,string,uint8,uint8,string)": "infinite",
				"add_qualififcation(uint256,string,string,uint256,uint256)": "infinite",
				"add_required_tech(uint256,string)": "infinite",
				"add_techs(uint256,string,uint8)": "infinite",
				"get_applicant_detail(uint256)": "infinite",
				"get_applicant_rating(uint256)": "4779",
				"get_applicant_type(uint256)": "4746",
				"get_job_details(uint256)": "infinite",
				"get_job_rating(uint256)": "6895",
				"post_job_online(uint256)": "28958",
				"rate_applicant(uint256,uint256)": "26862",
				"rate_job(uint256,uint8)": "51409",
				"register(string,string,string,string,uint8,uint8,uint8)": "infinite",
				"remove_job_online(uint256)": "26748"
			},
			"internal": {
				"add_contact_details(uint256,string memory,string memory,string memory,string memory,string memory)": "infinite"
			}
		},
		"methodIdentifiers": {
			"add_experiance(uint256,string,string,uint8)": "6cd2e00a",
			"add_good_to_have_tech(uint256,string)": "daf4d0a7",
			"add_new_job(string,string,uint256,string,string,string,string,uint8,uint8,string)": "77ed08c9",
			"add_qualififcation(uint256,string,string,uint256,uint256)": "118af2fb",
			"add_required_tech(uint256,string)": "655d864f",
			"add_techs(uint256,string,uint8)": "81740e5b",
			"get_applicant_detail(uint256)": "34cade13",
			"get_applicant_rating(uint256)": "402d364e",
			"get_applicant_type(uint256)": "00511198",
			"get_job_details(uint256)": "22c19f8b",
			"get_job_rating(uint256)": "b4a039d5",
			"post_job_online(uint256)": "983fce0e",
			"rate_applicant(uint256,uint256)": "62ea8013",
			"rate_job(uint256,uint8)": "50f022b0",
			"register(string,string,string,string,uint8,uint8,uint8)": "08f5a112",
			"remove_job_online(uint256)": "24873cb7"
		}
	},
	"abi": [
		{
			"inputs": [],
			"stateMutability": "nonpayable",
			"type": "constructor"
		},
		{
			"anonymous": false,
			"inputs": [
				{
					"indexed": false,
					"internalType": "address",
					"name": "_address",
					"type": "address"
				}
			],
			"name": "applicant_registered_success",
			"type": "event"
		},
		{
			"anonymous": false,
			"inputs": [
				{
					"indexed": true,
					"internalType": "uint256",
					"name": "applicant_id",
					"type": "uint256"
				}
			],
			"name": "experiance_added",
			"type": "event"
		},
		{
			"anonymous": false,
			"inputs": [
				{
					"indexed": true,
					"internalType": "uint256",
					"name": "job_id",
					"type": "uint256"
				},
				{
					"indexed": true,
					"internalType": "address",
					"name": "job_owner",
					"type": "address"
				},
				{
					"indexed": false,
					"internalType": "string",
					"name": "job_title",
					"type": "string"
				}
			],
			"name": "job_added",
			"type": "event"
		},
		{
			"anonymous": false,
			"inputs": [
				{
					"indexed": true,
					"internalType": "uint256",
					"name": "applicant_id",
					"type": "uint256"
				}
			],
			"name": "qualification_added",
			"type": "event"
		},
		{
			"anonymous": false,
			"inputs": [
				{
					"indexed": true,
					"internalType": "address",
					"name": "owner",
					"type": "address"
				},
				{
					"indexed": false,
					"internalType": "string",
					"name": "tech_name",
					"type": "string"
				}
			],
			"name": "techs_added",
			"type": "event"
		},
		{
			"inputs": [
				{
					"internalType": "uint256",
					"name": "id",
					"type": "uint256"
				},
				{
					"internalType": "string",
					"name": "_company_name",
					"type": "string"
				},
				{
					"internalType": "string",
					"name": "_role",
					"type": "string"
				},
				{
					"internalType": "uint8",
					"name": "_years_of_experiance",
					"type": "uint8"
				}
			],
			"name": "add_experiance",
			"outputs": [],
			"stateMutability": "nonpayable",
			"type": "function"
		},
		{
			"inputs": [
				{
					"internalType": "uint256",
					"name": "job_id",
					"type": "uint256"
				},
				{
					"internalType": "string",
					"name": "tech_name",
					"type": "string"
				}
			],
			"name": "add_good_to_have_tech",
			"outputs": [],
			"stateMutability": "nonpayable",
			"type": "function"
		},
		{
			"inputs": [
				{
					"internalType": "string",
					"name": "_role",
					"type": "string"
				},
				{
					"internalType": "string",
					"name": "_description",
					"type": "string"
				},
				{
					"internalType": "uint256",
					"name": "_number_of_opening",
					"type": "uint256"
				},
				{
					"internalType": "string",
					"name": "_company_name",
					"type": "string"
				},
				{
					"internalType": "string",
					"name": "_location",
					"type": "string"
				},
				{
					"internalType": "string",
					"name": "_mail",
					"type": "string"
				},
				{
					"internalType": "string",
					"name": "_phone",
					"type": "string"
				},
				{
					"internalType": "enum Job_Portal.ApplicantType",
					"name": "_applicant_type",
					"type": "uint8"
				},
				{
					"internalType": "uint8",
					"name": "_required_exp",
					"type": "uint8"
				},
				{
					"internalType": "string",
					"name": "_industry_type",
					"type": "string"
				}
			],
			"name": "add_new_job",
			"outputs": [],
			"stateMutability": "nonpayable",
			"type": "function"
		},
		{
			"inputs": [
				{
					"internalType": "uint256",
					"name": "id",
					"type": "uint256"
				},
				{
					"internalType": "string",
					"name": "_course_name",
					"type": "string"
				},
				{
					"internalType": "string",
					"name": "_degree",
					"type": "string"
				},
				{
					"internalType": "uint256",
					"name": "_duration",
					"type": "uint256"
				},
				{
					"internalType": "uint256",
					"name": "_percentage",
					"type": "uint256"
				}
			],
			"name": "add_qualififcation",
			"outputs": [],
			"stateMutability": "nonpayable",
			"type": "function"
		},
		{
			"inputs": [
				{
					"internalType": "uint256",
					"name": "job_id",
					"type": "uint256"
				},
				{
					"internalType": "string",
					"name": "tech_name",
					"type": "string"
				}
			],
			"name": "add_required_tech",
			"outputs": [],
			"stateMutability": "nonpayable",
			"type": "function"
		},
		{
			"inputs": [
				{
					"internalType": "uint256",
					"name": "id",
					"type": "uint256"
				},
				{
					"internalType": "string",
					"name": "_tech_name",
					"type": "string"
				},
				{
					"internalType": "uint8",
					"name": "_years_of_experiance",
					"type": "uint8"
				}
			],
			"name": "add_techs",
			"outputs": [],
			"stateMutability": "nonpayable",
			"type": "function"
		},
		{
			"inputs": [
				{
					"internalType": "uint256",
					"name": "id",
					"type": "uint256"
				}
			],
			"name": "get_applicant_detail",
			"outputs": [
				{
					"components": [
						{
							"internalType": "uint256",
							"name": "applicant_id",
							"type": "uint256"
						},
						{
							"internalType": "address",
							"name": "eth_address",
							"type": "address"
						},
						{
							"internalType": "string",
							"name": "applicant_name",
							"type": "string"
						},
						{
							"internalType": "string",
							"name": "applicant_address",
							"type": "string"
						},
						{
							"internalType": "string",
							"name": "applicant_email_id",
							"type": "string"
						},
						{
							"internalType": "enum Job_Portal.ApplicantType",
							"name": "applicant_Type",
							"type": "uint8"
						},
						{
							"internalType": "string",
							"name": "applicant_phone_number",
							"type": "string"
						},
						{
							"internalType": "uint8",
							"name": "current_salary",
							"type": "uint8"
						},
						{
							"internalType": "uint8",
							"name": "expected_salary",
							"type": "uint8"
						},
						{
							"internalType": "uint256",
							"name": "applicant_rating",
							"type": "uint256"
						},
						{
							"internalType": "uint256",
							"name": "no_of_rating",
							"type": "uint256"
						}
					],
					"internalType": "struct Job_Portal.Applicants",
					"name": "",
					"type": "tuple"
				}
			],
			"stateMutability": "view",
			"type": "function"
		},
		{
			"inputs": [
				{
					"internalType": "uint256",
					"name": "_id",
					"type": "uint256"
				}
			],
			"name": "get_applicant_rating",
			"outputs": [
				{
					"internalType": "uint256",
					"name": "",
					"type": "uint256"
				}
			],
			"stateMutability": "view",
			"type": "function"
		},
		{
			"inputs": [
				{
					"internalType": "uint256",
					"name": "id",
					"type": "uint256"
				}
			],
			"name": "get_applicant_type",
			"outputs": [
				{
					"internalType": "enum Job_Portal.ApplicantType",
					"name": "",
					"type": "uint8"
				}
			],
			"stateMutability": "view",
			"type": "function"
		},
		{
			"inputs": [
				{
					"internalType": "uint256",
					"name": "job_id",
					"type": "uint256"
				}
			],
			"name": "get_job_details",
			"outputs": [
				{
					"components": [
						{
							"internalType": "address",
							"name": "job_eth_address",
							"type": "address"
						},
						{
							"internalType": "uint256",
							"name": "job_id",
							"type": "uint256"
						},
						{
							"internalType": "string",
							"name": "Role",
							"type": "string"
						},
						{
							"internalType": "string",
							"name": "job_description",
							"type": "string"
						},
						{
							"internalType": "uint256",
							"name": "number_of_opening",
							"type": "uint256"
						},
						{
							"internalType": "enum Job_Portal.ApplicantType",
							"name": "applicant_type",
							"type": "uint8"
						},
						{
							"internalType": "uint8",
							"name": "required_years_of_experiance",
							"type": "uint8"
						},
						{
							"internalType": "uint256",
							"name": "total_rating",
							"type": "uint256"
						},
						{
							"internalType": "uint256",
							"name": "num_of_ratings",
							"type": "uint256"
						},
						{
							"internalType": "bool",
							"name": "job_posted",
							"type": "bool"
						}
					],
					"internalType": "struct Job_Portal.Job_Post",
					"name": "",
					"type": "tuple"
				},
				{
					"components": [
						{
							"internalType": "string",
							"name": "company_name",
							"type": "string"
						},
						{
							"internalType": "string",
							"name": "job_location",
							"type": "string"
						},
						{
							"internalType": "string",
							"name": "comapany_mail",
							"type": "string"
						},
						{
							"internalType": "string",
							"name": "company_phone",
							"type": "string"
						},
						{
							"internalType": "string",
							"name": "Industry_type",
							"type": "string"
						}
					],
					"internalType": "struct Job_Portal.ContactDetails",
					"name": "",
					"type": "tuple"
				},
				{
					"components": [
						{
							"internalType": "string",
							"name": "tech_names",
							"type": "string"
						}
					],
					"internalType": "struct Job_Portal.Required_Techs[]",
					"name": "",
					"type": "tuple[]"
				},
				{
					"components": [
						{
							"internalType": "string",
							"name": "tech_names",
							"type": "string"
						}
					],
					"internalType": "struct Job_Portal.Good_To_Have_Techs[]",
					"name": "",
					"type": "tuple[]"
				}
			],
			"stateMutability": "view",
			"type": "function"
		},
		{
			"inputs": [
				{
					"internalType": "uint256",
					"name": "job_id",
					"type": "uint256"
				}
			],
			"name": "get_job_rating",
			"outputs": [
				{
					"internalType": "uint256",
					"name": "",
					"type": "uint256"
				}
			],
			"stateMutability": "view",
			"type": "function"
		},
		{
			"inputs": [
				{
					"internalType": "uint256",
					"name": "job_id",
					"type": "uint256"
				}
			],
			"name": "post_job_online",
			"outputs": [],
			"stateMutability": "nonpayable",
			"type": "function"
		},
		{
			"inputs": [
				{
					"internalType": "uint256",
					"name": "id",
					"type": "uint256"
				},
				{
					"internalType": "uint256",
					"name": "rating",
					"type": "uint256"
				}
			],
			"name": "rate_applicant",
			"outputs": [],
			"stateMutability": "nonpayable",
			"type": "function"
		},
		{
			"inputs": [
				{
					"internalType": "uint256",
					"name": "job_id",
					"type": "uint256"
				},
				{
					"internalType": "uint8",
					"name": "rating",
					"type": "uint8"
				}
			],
			"name": "rate_job",
			"outputs": [],
			"stateMutability": "nonpayable",
			"type": "function"
		},
		{
			"inputs": [
				{
					"internalType": "string",
					"name": "name",
					"type": "string"
				},
				{
					"internalType": "string",
					"name": "_address",
					"type": "string"
				},
				{
					"internalType": "string",
					"name": "email_id",
					"type": "string"
				},
				{
					"internalType": "string",
					"name": "phone_number",
					"type": "string"
				},
				{
					"internalType": "enum Job_Portal.ApplicantType",
					"name": "applicant_type",
					"type": "uint8"
				},
				{
					"internalType": "uint8",
					"name": "current_salary_in_LPA",
					"type": "uint8"
				},
				{
					"internalType": "uint8",
					"name": "expected_salary_in_LPA",
					"type": "uint8"
				}
			],
			"name": "register",
			"outputs": [],
			"stateMutability": "nonpayable",
			"type": "function"
		},
		{
			"inputs": [
				{
					"internalType": "uint256",
					"name": "job_id",
					"type": "uint256"
				}
			],
			"name": "remove_job_online",
			"outputs": [],
			"stateMutability": "nonpayable",
			"type": "function"
		}
	]
}